{
  "_format": "hh-sol-artifact-1",
  "contractName": "OceanToken",
  "sourceName": "contracts/OceanToken.sol",
  "abi": [
    {
      "inputs": [
        {
          "internalType": "uint256",
          "name": "cap",
          "type": "uint256"
        },
        {
          "internalType": "uint256",
          "name": "reward",
          "type": "uint256"
        }
      ],
      "stateMutability": "nonpayable",
      "type": "constructor"
    },
    {
      "inputs": [],
      "name": "AccessControlBadConfirmation",
      "type": "error"
    },
    {
      "inputs": [
        {
          "internalType": "address",
          "name": "account",
          "type": "address"
        },
        {
          "internalType": "bytes32",
          "name": "neededRole",
          "type": "bytes32"
        }
      ],
      "name": "AccessControlUnauthorizedAccount",
      "type": "error"
    },
    {
      "inputs": [
        {
          "internalType": "uint256",
          "name": "increasedSupply",
          "type": "uint256"
        },
        {
          "internalType": "uint256",
          "name": "cap",
          "type": "uint256"
        }
      ],
      "name": "ERC20ExceededCap",
      "type": "error"
    },
    {
      "inputs": [
        {
          "internalType": "address",
          "name": "spender",
          "type": "address"
        },
        {
          "internalType": "uint256",
          "name": "allowance",
          "type": "uint256"
        },
        {
          "internalType": "uint256",
          "name": "needed",
          "type": "uint256"
        }
      ],
      "name": "ERC20InsufficientAllowance",
      "type": "error"
    },
    {
      "inputs": [
        {
          "internalType": "address",
          "name": "sender",
          "type": "address"
        },
        {
          "internalType": "uint256",
          "name": "balance",
          "type": "uint256"
        },
        {
          "internalType": "uint256",
          "name": "needed",
          "type": "uint256"
        }
      ],
      "name": "ERC20InsufficientBalance",
      "type": "error"
    },
    {
      "inputs": [
        {
          "internalType": "address",
          "name": "approver",
          "type": "address"
        }
      ],
      "name": "ERC20InvalidApprover",
      "type": "error"
    },
    {
      "inputs": [
        {
          "internalType": "uint256",
          "name": "cap",
          "type": "uint256"
        }
      ],
      "name": "ERC20InvalidCap",
      "type": "error"
    },
    {
      "inputs": [
        {
          "internalType": "address",
          "name": "receiver",
          "type": "address"
        }
      ],
      "name": "ERC20InvalidReceiver",
      "type": "error"
    },
    {
      "inputs": [
        {
          "internalType": "address",
          "name": "sender",
          "type": "address"
        }
      ],
      "name": "ERC20InvalidSender",
      "type": "error"
    },
    {
      "inputs": [
        {
          "internalType": "address",
          "name": "spender",
          "type": "address"
        }
      ],
      "name": "ERC20InvalidSpender",
      "type": "error"
    },
    {
      "anonymous": false,
      "inputs": [
        {
          "indexed": true,
          "internalType": "address",
          "name": "owner",
          "type": "address"
        },
        {
          "indexed": true,
          "internalType": "address",
          "name": "spender",
          "type": "address"
        },
        {
          "indexed": false,
          "internalType": "uint256",
          "name": "value",
          "type": "uint256"
        }
      ],
      "name": "Approval",
      "type": "event"
    },
    {
      "anonymous": false,
      "inputs": [
        {
          "indexed": true,
          "internalType": "bytes32",
          "name": "role",
          "type": "bytes32"
        },
        {
          "indexed": true,
          "internalType": "bytes32",
          "name": "previousAdminRole",
          "type": "bytes32"
        },
        {
          "indexed": true,
          "internalType": "bytes32",
          "name": "newAdminRole",
          "type": "bytes32"
        }
      ],
      "name": "RoleAdminChanged",
      "type": "event"
    },
    {
      "anonymous": false,
      "inputs": [
        {
          "indexed": true,
          "internalType": "bytes32",
          "name": "role",
          "type": "bytes32"
        },
        {
          "indexed": true,
          "internalType": "address",
          "name": "account",
          "type": "address"
        },
        {
          "indexed": true,
          "internalType": "address",
          "name": "sender",
          "type": "address"
        }
      ],
      "name": "RoleGranted",
      "type": "event"
    },
    {
      "anonymous": false,
      "inputs": [
        {
          "indexed": true,
          "internalType": "bytes32",
          "name": "role",
          "type": "bytes32"
        },
        {
          "indexed": true,
          "internalType": "address",
          "name": "account",
          "type": "address"
        },
        {
          "indexed": true,
          "internalType": "address",
          "name": "sender",
          "type": "address"
        }
      ],
      "name": "RoleRevoked",
      "type": "event"
    },
    {
      "anonymous": false,
      "inputs": [
        {
          "indexed": true,
          "internalType": "address",
          "name": "from",
          "type": "address"
        },
        {
          "indexed": true,
          "internalType": "address",
          "name": "to",
          "type": "address"
        },
        {
          "indexed": false,
          "internalType": "uint256",
          "name": "value",
          "type": "uint256"
        }
      ],
      "name": "Transfer",
      "type": "event"
    },
    {
      "inputs": [],
      "name": "DEFAULT_ADMIN_ROLE",
      "outputs": [
        {
          "internalType": "bytes32",
          "name": "",
          "type": "bytes32"
        }
      ],
      "stateMutability": "view",
      "type": "function"
    },
    {
      "inputs": [],
      "name": "INITIAL_SUPPLY",
      "outputs": [
        {
          "internalType": "uint256",
          "name": "",
          "type": "uint256"
        }
      ],
      "stateMutability": "view",
      "type": "function"
    },
    {
      "inputs": [],
      "name": "MINTER_ROLE",
      "outputs": [
        {
          "internalType": "bytes32",
          "name": "",
          "type": "bytes32"
        }
      ],
      "stateMutability": "view",
      "type": "function"
    },
    {
      "inputs": [
        {
          "internalType": "address",
          "name": "owner",
          "type": "address"
        },
        {
          "internalType": "address",
          "name": "spender",
          "type": "address"
        }
      ],
      "name": "allowance",
      "outputs": [
        {
          "internalType": "uint256",
          "name": "",
          "type": "uint256"
        }
      ],
      "stateMutability": "view",
      "type": "function"
    },
    {
      "inputs": [
        {
          "internalType": "address",
          "name": "spender",
          "type": "address"
        },
        {
          "internalType": "uint256",
          "name": "value",
          "type": "uint256"
        }
      ],
      "name": "approve",
      "outputs": [
        {
          "internalType": "bool",
          "name": "",
          "type": "bool"
        }
      ],
      "stateMutability": "nonpayable",
      "type": "function"
    },
    {
      "inputs": [
        {
          "internalType": "address",
          "name": "account",
          "type": "address"
        }
      ],
      "name": "balanceOf",
      "outputs": [
        {
          "internalType": "uint256",
          "name": "",
          "type": "uint256"
        }
      ],
      "stateMutability": "view",
      "type": "function"
    },
    {
      "inputs": [],
      "name": "blockReward",
      "outputs": [
        {
          "internalType": "uint256",
          "name": "",
          "type": "uint256"
        }
      ],
      "stateMutability": "view",
      "type": "function"
    },
    {
      "inputs": [
        {
          "internalType": "uint256",
          "name": "value",
          "type": "uint256"
        }
      ],
      "name": "burn",
      "outputs": [],
      "stateMutability": "nonpayable",
      "type": "function"
    },
    {
      "inputs": [
        {
          "internalType": "address",
          "name": "account",
          "type": "address"
        },
        {
          "internalType": "uint256",
          "name": "value",
          "type": "uint256"
        }
      ],
      "name": "burnFrom",
      "outputs": [],
      "stateMutability": "nonpayable",
      "type": "function"
    },
    {
      "inputs": [],
      "name": "cap",
      "outputs": [
        {
          "internalType": "uint256",
          "name": "",
          "type": "uint256"
        }
      ],
      "stateMutability": "view",
      "type": "function"
    },
    {
      "inputs": [],
      "name": "decimals",
      "outputs": [
        {
          "internalType": "uint8",
          "name": "",
          "type": "uint8"
        }
      ],
      "stateMutability": "view",
      "type": "function"
    },
    {
      "inputs": [],
      "name": "destroy",
      "outputs": [],
      "stateMutability": "nonpayable",
      "type": "function"
    },
    {
      "inputs": [],
      "name": "getOwner",
      "outputs": [
        {
          "internalType": "address",
          "name": "",
          "type": "address"
        }
      ],
      "stateMutability": "view",
      "type": "function"
    },
    {
      "inputs": [
        {
          "internalType": "bytes32",
          "name": "role",
          "type": "bytes32"
        }
      ],
      "name": "getRoleAdmin",
      "outputs": [
        {
          "internalType": "bytes32",
          "name": "",
          "type": "bytes32"
        }
      ],
      "stateMutability": "view",
      "type": "function"
    },
    {
      "inputs": [
        {
          "internalType": "bytes32",
          "name": "role",
          "type": "bytes32"
        },
        {
          "internalType": "address",
          "name": "account",
          "type": "address"
        }
      ],
      "name": "grantRole",
      "outputs": [],
      "stateMutability": "nonpayable",
      "type": "function"
    },
    {
      "inputs": [
        {
          "internalType": "bytes32",
          "name": "role",
          "type": "bytes32"
        },
        {
          "internalType": "address",
          "name": "account",
          "type": "address"
        }
      ],
      "name": "hasRole",
      "outputs": [
        {
          "internalType": "bool",
          "name": "",
          "type": "bool"
        }
      ],
      "stateMutability": "view",
      "type": "function"
    },
    {
      "inputs": [
        {
          "internalType": "address",
          "name": "to",
          "type": "address"
        },
        {
          "internalType": "uint256",
          "name": "amount",
          "type": "uint256"
        }
      ],
      "name": "mint",
      "outputs": [],
      "stateMutability": "nonpayable",
      "type": "function"
    },
    {
      "inputs": [],
      "name": "name",
      "outputs": [
        {
          "internalType": "string",
          "name": "",
          "type": "string"
        }
      ],
      "stateMutability": "view",
      "type": "function"
    },
    {
      "inputs": [],
      "name": "owner",
      "outputs": [
        {
          "internalType": "address payable",
          "name": "",
          "type": "address"
        }
      ],
      "stateMutability": "view",
      "type": "function"
    },
    {
      "inputs": [
        {
          "internalType": "bytes32",
          "name": "role",
          "type": "bytes32"
        },
        {
          "internalType": "address",
          "name": "callerConfirmation",
          "type": "address"
        }
      ],
      "name": "renounceRole",
      "outputs": [],
      "stateMutability": "nonpayable",
      "type": "function"
    },
    {
      "inputs": [
        {
          "internalType": "bytes32",
          "name": "role",
          "type": "bytes32"
        },
        {
          "internalType": "address",
          "name": "account",
          "type": "address"
        }
      ],
      "name": "revokeRole",
      "outputs": [],
      "stateMutability": "nonpayable",
      "type": "function"
    },
    {
      "inputs": [
        {
          "internalType": "uint256",
          "name": "reward",
          "type": "uint256"
        }
      ],
      "name": "setBlockReward",
      "outputs": [],
      "stateMutability": "nonpayable",
      "type": "function"
    },
    {
      "inputs": [
        {
          "internalType": "bytes4",
          "name": "interfaceId",
          "type": "bytes4"
        }
      ],
      "name": "supportsInterface",
      "outputs": [
        {
          "internalType": "bool",
          "name": "",
          "type": "bool"
        }
      ],
      "stateMutability": "view",
      "type": "function"
    },
    {
      "inputs": [],
      "name": "symbol",
      "outputs": [
        {
          "internalType": "string",
          "name": "",
          "type": "string"
        }
      ],
      "stateMutability": "view",
      "type": "function"
    },
    {
      "inputs": [],
      "name": "totalSupply",
      "outputs": [
        {
          "internalType": "uint256",
          "name": "",
          "type": "uint256"
        }
      ],
      "stateMutability": "view",
      "type": "function"
    },
    {
      "inputs": [
        {
          "internalType": "address",
          "name": "to",
          "type": "address"
        },
        {
          "internalType": "uint256",
          "name": "value",
          "type": "uint256"
        }
      ],
      "name": "transfer",
      "outputs": [
        {
          "internalType": "bool",
          "name": "",
          "type": "bool"
        }
      ],
      "stateMutability": "nonpayable",
      "type": "function"
    },
    {
      "inputs": [
        {
          "internalType": "address",
          "name": "from",
          "type": "address"
        },
        {
          "internalType": "address",
          "name": "to",
          "type": "address"
        },
        {
          "internalType": "uint256",
          "name": "value",
          "type": "uint256"
        }
      ],
      "name": "transferFrom",
      "outputs": [
        {
          "internalType": "bool",
          "name": "",
          "type": "bool"
        }
      ],
      "stateMutability": "nonpayable",
      "type": "function"
    }
  ],
  "bytecode": "0x60a060405234801561001057600080fd5b50604051612ce1380380612ce183398181016040528101906100329190610854565b61004061024660201b60201c565b600a61004c9190610a03565b826100579190610a4e565b6040518060400160405280600581526020017f4f6365616e0000000000000000000000000000000000000000000000000000008152506040518060400160405280600581526020017f4f4345414e00000000000000000000000000000000000000000000000000000081525081600390816100d29190610cd6565b5080600490816100e29190610cd6565b5050506000810361012b5760006040517f392e1e270000000000000000000000000000000000000000000000000000000081526004016101229190610de3565b60405180910390fd5b80608081815250505033600660006101000a81548173ffffffffffffffffffffffffffffffffffffffff021916908373ffffffffffffffffffffffffffffffffffffffff1602179055506101cf600660009054906101000a900473ffffffffffffffffffffffffffffffffffffffff166101a961024660201b60201c565b600a6101b59190610a03565b63042c1d806101c49190610a4e565b61024f60201b60201c565b6101dd61024660201b60201c565b600a6101e99190610a03565b816101f49190610a4e565b60078190555061020d6000801b336102d760201b60201c565b5061023e7f9f2df0fed2c77648de5860a4cc508cd0818c85b8b8a1ab4ceeef8d981c8956a6336102d760201b60201c565b505050610f18565b60006012905090565b600073ffffffffffffffffffffffffffffffffffffffff168273ffffffffffffffffffffffffffffffffffffffff16036102c15760006040517fec442f050000000000000000000000000000000000000000000000000000000081526004016102b89190610e3f565b60405180910390fd5b6102d3600083836103d560201b60201c565b5050565b60006102e983836104a160201b60201c565b6103ca5760016005600085815260200190815260200160002060000160008473ffffffffffffffffffffffffffffffffffffffff1673ffffffffffffffffffffffffffffffffffffffff16815260200190815260200160002060006101000a81548160ff02191690831515021790555061036761050c60201b60201c565b73ffffffffffffffffffffffffffffffffffffffff168273ffffffffffffffffffffffffffffffffffffffff16847f2f8788117e7eff1d82e926ec794901d17c78024a50270940304540a733656f0d60405160405180910390a4600190506103cf565b600090505b92915050565b600073ffffffffffffffffffffffffffffffffffffffff168373ffffffffffffffffffffffffffffffffffffffff161415801561043e57504173ffffffffffffffffffffffffffffffffffffffff168273ffffffffffffffffffffffffffffffffffffffff1614155b80156104775750600073ffffffffffffffffffffffffffffffffffffffff164173ffffffffffffffffffffffffffffffffffffffff1614155b1561048b5761048a61051460201b60201c565b5b61049c83838361052860201b60201c565b505050565b60006005600084815260200190815260200160002060000160008373ffffffffffffffffffffffffffffffffffffffff1673ffffffffffffffffffffffffffffffffffffffff16815260200190815260200160002060009054906101000a900460ff16905092915050565b600033905090565b6105264160075461024f60201b60201c565b565b6105398383836105e060201b60201c565b600073ffffffffffffffffffffffffffffffffffffffff168373ffffffffffffffffffffffffffffffffffffffff16036105db57600061057d61080560201b60201c565b9050600061058f61080f60201b60201c565b9050818111156105d85780826040517f9e79f8540000000000000000000000000000000000000000000000000000000081526004016105cf929190610e69565b60405180910390fd5b50505b505050565b600073ffffffffffffffffffffffffffffffffffffffff168373ffffffffffffffffffffffffffffffffffffffff16036106325780600260008282546106269190610e92565b92505081905550610705565b60008060008573ffffffffffffffffffffffffffffffffffffffff1673ffffffffffffffffffffffffffffffffffffffff168152602001908152602001600020549050818110156106be578381836040517fe450d38c0000000000000000000000000000000000000000000000000000000081526004016106b593929190610ec6565b60405180910390fd5b8181036000808673ffffffffffffffffffffffffffffffffffffffff1673ffffffffffffffffffffffffffffffffffffffff16815260200190815260200160002081905550505b600073ffffffffffffffffffffffffffffffffffffffff168273ffffffffffffffffffffffffffffffffffffffff160361074e578060026000828254039250508190555061079b565b806000808473ffffffffffffffffffffffffffffffffffffffff1673ffffffffffffffffffffffffffffffffffffffff168152602001908152602001600020600082825401925050819055505b8173ffffffffffffffffffffffffffffffffffffffff168373ffffffffffffffffffffffffffffffffffffffff167fddf252ad1be2c89b69c2b068fc378daa952ba7f163c4a11628f55a4df523b3ef836040516107f89190610efd565b60405180910390a3505050565b6000608051905090565b6000600254905090565b600080fd5b6000819050919050565b6108318161081e565b811461083c57600080fd5b50565b60008151905061084e81610828565b92915050565b6000806040838503121561086b5761086a610819565b5b60006108798582860161083f565b925050602061088a8582860161083f565b9150509250929050565b7f4e487b7100000000000000000000000000000000000000000000000000000000600052601160045260246000fd5b60008160011c9050919050565b6000808291508390505b600185111561091a578086048111156108f6576108f5610894565b5b60018516156109055780820291505b8081029050610913856108c3565b94506108da565b94509492505050565b60008261093357600190506109ef565b8161094157600090506109ef565b8160018114610957576002811461096157610990565b60019150506109ef565b60ff84111561097357610972610894565b5b8360020a91508482111561098a57610989610894565b5b506109ef565b5060208310610133831016604e8410600b84101617156109c55782820a9050838111156109c0576109bf610894565b5b6109ef565b6109d284848460016108d0565b925090508184048111156109e9576109e8610894565b5b81810290505b9392505050565b600060ff82169050919050565b6000610a0e8261081e565b9150610a19836109f6565b9250610a467fffffffffffffffffffffffffffffffffffffffffffffffffffffffffffffffff8484610923565b905092915050565b6000610a598261081e565b9150610a648361081e565b9250828202610a728161081e565b91508282048414831517610a8957610a88610894565b5b5092915050565b600081519050919050565b7f4e487b7100000000000000000000000000000000000000000000000000000000600052604160045260246000fd5b7f4e487b7100000000000000000000000000000000000000000000000000000000600052602260045260246000fd5b60006002820490506001821680610b1157607f821691505b602082108103610b2457610b23610aca565b5b50919050565b60008190508160005260206000209050919050565b60006020601f8301049050919050565b600082821b905092915050565b600060088302610b8c7fffffffffffffffffffffffffffffffffffffffffffffffffffffffffffffffff82610b4f565b610b968683610b4f565b95508019841693508086168417925050509392505050565b6000819050919050565b6000610bd3610bce610bc98461081e565b610bae565b61081e565b9050919050565b6000819050919050565b610bed83610bb8565b610c01610bf982610bda565b848454610b5c565b825550505050565b600090565b610c16610c09565b610c21818484610be4565b505050565b5b81811015610c4557610c3a600082610c0e565b600181019050610c27565b5050565b601f821115610c8a57610c5b81610b2a565b610c6484610b3f565b81016020851015610c73578190505b610c87610c7f85610b3f565b830182610c26565b50505b505050565b600082821c905092915050565b6000610cad60001984600802610c8f565b1980831691505092915050565b6000610cc68383610c9c565b9150826002028217905092915050565b610cdf82610a90565b67ffffffffffffffff811115610cf857610cf7610a9b565b5b610d028254610af9565b610d0d828285610c49565b600060209050601f831160018114610d405760008415610d2e578287015190505b610d388582610cba565b865550610da0565b601f198416610d4e86610b2a565b60005b82811015610d7657848901518255600182019150602085019450602081019050610d51565b86831015610d935784890151610d8f601f891682610c9c565b8355505b6001600288020188555050505b505050505050565b6000819050919050565b6000610dcd610dc8610dc384610da8565b610bae565b61081e565b9050919050565b610ddd81610db2565b82525050565b6000602082019050610df86000830184610dd4565b92915050565b600073ffffffffffffffffffffffffffffffffffffffff82169050919050565b6000610e2982610dfe565b9050919050565b610e3981610e1e565b82525050565b6000602082019050610e546000830184610e30565b92915050565b610e638161081e565b82525050565b6000604082019050610e7e6000830185610e5a565b610e8b6020830184610e5a565b9392505050565b6000610e9d8261081e565b9150610ea88361081e565b9250828201905080821115610ec057610ebf610894565b5b92915050565b6000606082019050610edb6000830186610e30565b610ee86020830185610e5a565b610ef56040830184610e5a565b949350505050565b6000602082019050610f126000830184610e5a565b92915050565b608051611dae610f3360003960006107a50152611dae6000f3fe608060405234801561001057600080fd5b50600436106101a95760003560e01c806340c10f19116100f957806391d1485411610097578063a9059cbb11610071578063a9059cbb146104ac578063d5391393146104dc578063d547741f146104fa578063dd62ed3e14610516576101a9565b806391d148541461044057806395d89b4114610470578063a217fddf1461048e576101a9565b806379cc6790116100d357806379cc6790146103de57806383197ef0146103fa578063893d20e8146104045780638da5cb5b14610422576101a9565b806340c10f191461037657806342966c681461039257806370a08231146103ae576101a9565b806323b872dd116101665780632ff2e9dc116101405780632ff2e9dc14610300578063313ce5671461031e578063355274ea1461033c57806336568abe1461035a576101a9565b806323b872dd14610284578063248a9ca3146102b45780632f2ff15d146102e4576101a9565b806301ffc9a7146101ae57806306fdde03146101de578063095ea7b3146101fc5780630ac168a11461022c57806318160ddd1461024a5780631a18e70714610268575b600080fd5b6101c860048036038101906101c39190611730565b610546565b6040516101d59190611778565b60405180910390f35b6101e66105c0565b6040516101f39190611823565b60405180910390f35b610216600480360381019061021191906118d9565b610652565b6040516102239190611778565b60405180910390f35b610234610675565b6040516102419190611928565b60405180910390f35b61025261067b565b60405161025f9190611928565b60405180910390f35b610282600480360381019061027d9190611943565b610685565b005b61029e60048036038101906102999190611970565b61071f565b6040516102ab9190611778565b60405180910390f35b6102ce60048036038101906102c991906119f9565b61074e565b6040516102db9190611a35565b60405180910390f35b6102fe60048036038101906102f99190611a50565b61076e565b005b610308610790565b6040516103159190611928565b60405180910390f35b610326610798565b6040516103339190611aac565b60405180910390f35b6103446107a1565b6040516103519190611928565b60405180910390f35b610374600480360381019061036f9190611a50565b6107c9565b005b610390600480360381019061038b91906118d9565b610844565b005b6103ac60048036038101906103a79190611943565b61087d565b005b6103c860048036038101906103c39190611ac7565b610891565b6040516103d59190611928565b60405180910390f35b6103f860048036038101906103f391906118d9565b6108d9565b005b6104026108f9565b005b61040c6109c4565b6040516104199190611b03565b60405180910390f35b61042a6109ee565b6040516104379190611b3f565b60405180910390f35b61045a60048036038101906104559190611a50565b610a14565b6040516104679190611778565b60405180910390f35b610478610a7f565b6040516104859190611823565b60405180910390f35b610496610b11565b6040516104a39190611a35565b60405180910390f35b6104c660048036038101906104c191906118d9565b610b18565b6040516104d39190611778565b60405180910390f35b6104e4610b3b565b6040516104f19190611a35565b60405180910390f35b610514600480360381019061050f9190611a50565b610b5f565b005b610530600480360381019061052b9190611b5a565b610b81565b60405161053d9190611928565b60405180910390f35b60007f7965db0b000000000000000000000000000000000000000000000000000000007bffffffffffffffffffffffffffffffffffffffffffffffffffffffff1916827bffffffffffffffffffffffffffffffffffffffffffffffffffffffff191614806105b957506105b882610c08565b5b9050919050565b6060600380546105cf90611bc9565b80601f01602080910402602001604051908101604052809291908181526020018280546105fb90611bc9565b80156106485780601f1061061d57610100808354040283529160200191610648565b820191906000526020600020905b81548152906001019060200180831161062b57829003601f168201915b5050505050905090565b60008061065d610c72565b905061066a818585610c7a565b600191505092915050565b60075481565b6000600254905090565b600660009054906101000a900473ffffffffffffffffffffffffffffffffffffffff1673ffffffffffffffffffffffffffffffffffffffff163373ffffffffffffffffffffffffffffffffffffffff1614610715576040517f08c379a000000000000000000000000000000000000000000000000000000000815260040161070c90611c6c565b60405180910390fd5b8060078190555050565b60008061072a610c72565b9050610737858285610c8c565b610742858585610d21565b60019150509392505050565b600060056000838152602001908152602001600020600101549050919050565b6107778261074e565b61078081610e15565b61078a8383610e29565b50505050565b63042c1d8081565b60006012905090565b60007f0000000000000000000000000000000000000000000000000000000000000000905090565b6107d1610c72565b73ffffffffffffffffffffffffffffffffffffffff168173ffffffffffffffffffffffffffffffffffffffff1614610835576040517f6697b23200000000000000000000000000000000000000000000000000000000815260040160405180910390fd5b61083f8282610f1b565b505050565b7f9f2df0fed2c77648de5860a4cc508cd0818c85b8b8a1ab4ceeef8d981c8956a661086e81610e15565b610878838361100e565b505050565b61088e610888610c72565b82611090565b50565b60008060008373ffffffffffffffffffffffffffffffffffffffff1673ffffffffffffffffffffffffffffffffffffffff168152602001908152602001600020549050919050565b6108eb826108e5610c72565b83610c8c565b6108f58282611090565b5050565b600660009054906101000a900473ffffffffffffffffffffffffffffffffffffffff1673ffffffffffffffffffffffffffffffffffffffff163373ffffffffffffffffffffffffffffffffffffffff1614610989576040517f08c379a000000000000000000000000000000000000000000000000000000000815260040161098090611c6c565b60405180910390fd5b600660009054906101000a900473ffffffffffffffffffffffffffffffffffffffff1673ffffffffffffffffffffffffffffffffffffffff16ff5b6000600660009054906101000a900473ffffffffffffffffffffffffffffffffffffffff16905090565b600660009054906101000a900473ffffffffffffffffffffffffffffffffffffffff1681565b60006005600084815260200190815260200160002060000160008373ffffffffffffffffffffffffffffffffffffffff1673ffffffffffffffffffffffffffffffffffffffff16815260200190815260200160002060009054906101000a900460ff16905092915050565b606060048054610a8e90611bc9565b80601f0160208091040260200160405190810160405280929190818152602001828054610aba90611bc9565b8015610b075780601f10610adc57610100808354040283529160200191610b07565b820191906000526020600020905b815481529060010190602001808311610aea57829003601f168201915b5050505050905090565b6000801b81565b600080610b23610c72565b9050610b30818585610d21565b600191505092915050565b7f9f2df0fed2c77648de5860a4cc508cd0818c85b8b8a1ab4ceeef8d981c8956a681565b610b688261074e565b610b7181610e15565b610b7b8383610f1b565b50505050565b6000600160008473ffffffffffffffffffffffffffffffffffffffff1673ffffffffffffffffffffffffffffffffffffffff16815260200190815260200160002060008373ffffffffffffffffffffffffffffffffffffffff1673ffffffffffffffffffffffffffffffffffffffff16815260200190815260200160002054905092915050565b60007f01ffc9a7000000000000000000000000000000000000000000000000000000007bffffffffffffffffffffffffffffffffffffffffffffffffffffffff1916827bffffffffffffffffffffffffffffffffffffffffffffffffffffffff1916149050919050565b600033905090565b610c878383836001611112565b505050565b6000610c988484610b81565b90507fffffffffffffffffffffffffffffffffffffffffffffffffffffffffffffffff811015610d1b5781811015610d0b578281836040517ffb8f41b2000000000000000000000000000000000000000000000000000000008152600401610d0293929190611c8c565b60405180910390fd5b610d1a84848484036000611112565b5b50505050565b600073ffffffffffffffffffffffffffffffffffffffff168373ffffffffffffffffffffffffffffffffffffffff1603610d935760006040517f96c6fd1e000000000000000000000000000000000000000000000000000000008152600401610d8a9190611b03565b60405180910390fd5b600073ffffffffffffffffffffffffffffffffffffffff168273ffffffffffffffffffffffffffffffffffffffff1603610e055760006040517fec442f05000000000000000000000000000000000000000000000000000000008152600401610dfc9190611b03565b60405180910390fd5b610e108383836112e9565b505050565b610e2681610e21610c72565b6113a9565b50565b6000610e358383610a14565b610f105760016005600085815260200190815260200160002060000160008473ffffffffffffffffffffffffffffffffffffffff1673ffffffffffffffffffffffffffffffffffffffff16815260200190815260200160002060006101000a81548160ff021916908315150217905550610ead610c72565b73ffffffffffffffffffffffffffffffffffffffff168273ffffffffffffffffffffffffffffffffffffffff16847f2f8788117e7eff1d82e926ec794901d17c78024a50270940304540a733656f0d60405160405180910390a460019050610f15565b600090505b92915050565b6000610f278383610a14565b156110035760006005600085815260200190815260200160002060000160008473ffffffffffffffffffffffffffffffffffffffff1673ffffffffffffffffffffffffffffffffffffffff16815260200190815260200160002060006101000a81548160ff021916908315150217905550610fa0610c72565b73ffffffffffffffffffffffffffffffffffffffff168273ffffffffffffffffffffffffffffffffffffffff16847ff6391f5c32d9c69d2a47ea670b442974b53935d1edc7fd64eb21e047a839171b60405160405180910390a460019050611008565b600090505b92915050565b600073ffffffffffffffffffffffffffffffffffffffff168273ffffffffffffffffffffffffffffffffffffffff16036110805760006040517fec442f050000000000000000000000000000000000000000000000000000000081526004016110779190611b03565b60405180910390fd5b61108c600083836112e9565b5050565b600073ffffffffffffffffffffffffffffffffffffffff168273ffffffffffffffffffffffffffffffffffffffff16036111025760006040517f96c6fd1e0000000000000000000000000000000000000000000000000000000081526004016110f99190611b03565b60405180910390fd5b61110e826000836112e9565b5050565b600073ffffffffffffffffffffffffffffffffffffffff168473ffffffffffffffffffffffffffffffffffffffff16036111845760006040517fe602df0500000000000000000000000000000000000000000000000000000000815260040161117b9190611b03565b60405180910390fd5b600073ffffffffffffffffffffffffffffffffffffffff168373ffffffffffffffffffffffffffffffffffffffff16036111f65760006040517f94280d620000000000000000000000000000000000000000000000000000000081526004016111ed9190611b03565b60405180910390fd5b81600160008673ffffffffffffffffffffffffffffffffffffffff1673ffffffffffffffffffffffffffffffffffffffff16815260200190815260200160002060008573ffffffffffffffffffffffffffffffffffffffff1673ffffffffffffffffffffffffffffffffffffffff1681526020019081526020016000208190555080156112e3578273ffffffffffffffffffffffffffffffffffffffff168473ffffffffffffffffffffffffffffffffffffffff167f8c5be1e5ebec7d5bd14f71427d1e84f3dd0314c0f7b2291e5b200ac8c7c3b925846040516112da9190611928565b60405180910390a35b50505050565b600073ffffffffffffffffffffffffffffffffffffffff168373ffffffffffffffffffffffffffffffffffffffff161415801561135257504173ffffffffffffffffffffffffffffffffffffffff168273ffffffffffffffffffffffffffffffffffffffff1614155b801561138b5750600073ffffffffffffffffffffffffffffffffffffffff164173ffffffffffffffffffffffffffffffffffffffff1614155b15611399576113986113fa565b5b6113a4838383611408565b505050565b6113b38282610a14565b6113f65780826040517fe2517d3f0000000000000000000000000000000000000000000000000000000081526004016113ed929190611cc3565b60405180910390fd5b5050565b6114064160075461100e565b565b6114138383836114ae565b600073ffffffffffffffffffffffffffffffffffffffff168373ffffffffffffffffffffffffffffffffffffffff16036114a95760006114516107a1565b9050600061145d61067b565b9050818111156114a65780826040517f9e79f85400000000000000000000000000000000000000000000000000000000815260040161149d929190611cec565b60405180910390fd5b50505b505050565b600073ffffffffffffffffffffffffffffffffffffffff168373ffffffffffffffffffffffffffffffffffffffff16036115005780600260008282546114f49190611d44565b925050819055506115d3565b60008060008573ffffffffffffffffffffffffffffffffffffffff1673ffffffffffffffffffffffffffffffffffffffff1681526020019081526020016000205490508181101561158c578381836040517fe450d38c00000000000000000000000000000000000000000000000000000000815260040161158393929190611c8c565b60405180910390fd5b8181036000808673ffffffffffffffffffffffffffffffffffffffff1673ffffffffffffffffffffffffffffffffffffffff16815260200190815260200160002081905550505b600073ffffffffffffffffffffffffffffffffffffffff168273ffffffffffffffffffffffffffffffffffffffff160361161c5780600260008282540392505081905550611669565b806000808473ffffffffffffffffffffffffffffffffffffffff1673ffffffffffffffffffffffffffffffffffffffff168152602001908152602001600020600082825401925050819055505b8173ffffffffffffffffffffffffffffffffffffffff168373ffffffffffffffffffffffffffffffffffffffff167fddf252ad1be2c89b69c2b068fc378daa952ba7f163c4a11628f55a4df523b3ef836040516116c69190611928565b60405180910390a3505050565b600080fd5b60007fffffffff0000000000000000000000000000000000000000000000000000000082169050919050565b61170d816116d8565b811461171857600080fd5b50565b60008135905061172a81611704565b92915050565b600060208284031215611746576117456116d3565b5b60006117548482850161171b565b91505092915050565b60008115159050919050565b6117728161175d565b82525050565b600060208201905061178d6000830184611769565b92915050565b600081519050919050565b600082825260208201905092915050565b60005b838110156117cd5780820151818401526020810190506117b2565b60008484015250505050565b6000601f19601f8301169050919050565b60006117f582611793565b6117ff818561179e565b935061180f8185602086016117af565b611818816117d9565b840191505092915050565b6000602082019050818103600083015261183d81846117ea565b905092915050565b600073ffffffffffffffffffffffffffffffffffffffff82169050919050565b600061187082611845565b9050919050565b61188081611865565b811461188b57600080fd5b50565b60008135905061189d81611877565b92915050565b6000819050919050565b6118b6816118a3565b81146118c157600080fd5b50565b6000813590506118d3816118ad565b92915050565b600080604083850312156118f0576118ef6116d3565b5b60006118fe8582860161188e565b925050602061190f858286016118c4565b9150509250929050565b611922816118a3565b82525050565b600060208201905061193d6000830184611919565b92915050565b600060208284031215611959576119586116d3565b5b6000611967848285016118c4565b91505092915050565b600080600060608486031215611989576119886116d3565b5b60006119978682870161188e565b93505060206119a88682870161188e565b92505060406119b9868287016118c4565b9150509250925092565b6000819050919050565b6119d6816119c3565b81146119e157600080fd5b50565b6000813590506119f3816119cd565b92915050565b600060208284031215611a0f57611a0e6116d3565b5b6000611a1d848285016119e4565b91505092915050565b611a2f816119c3565b82525050565b6000602082019050611a4a6000830184611a26565b92915050565b60008060408385031215611a6757611a666116d3565b5b6000611a75858286016119e4565b9250506020611a868582860161188e565b9150509250929050565b600060ff82169050919050565b611aa681611a90565b82525050565b6000602082019050611ac16000830184611a9d565b92915050565b600060208284031215611add57611adc6116d3565b5b6000611aeb8482850161188e565b91505092915050565b611afd81611865565b82525050565b6000602082019050611b186000830184611af4565b92915050565b6000611b2982611845565b9050919050565b611b3981611b1e565b82525050565b6000602082019050611b546000830184611b30565b92915050565b60008060408385031215611b7157611b706116d3565b5b6000611b7f8582860161188e565b9250506020611b908582860161188e565b9150509250929050565b7f4e487b7100000000000000000000000000000000000000000000000000000000600052602260045260246000fd5b60006002820490506001821680611be157607f821691505b602082108103611bf457611bf3611b9a565b5b50919050565b7f4f6e6c79206f776e65722063616e2063616c6c20746869732066756e6374696f60008201527f6e00000000000000000000000000000000000000000000000000000000000000602082015250565b6000611c5660218361179e565b9150611c6182611bfa565b604082019050919050565b60006020820190508181036000830152611c8581611c49565b9050919050565b6000606082019050611ca16000830186611af4565b611cae6020830185611919565b611cbb6040830184611919565b949350505050565b6000604082019050611cd86000830185611af4565b611ce56020830184611a26565b9392505050565b6000604082019050611d016000830185611919565b611d0e6020830184611919565b9392505050565b7f4e487b7100000000000000000000000000000000000000000000000000000000600052601160045260246000fd5b6000611d4f826118a3565b9150611d5a836118a3565b9250828201905080821115611d7257611d71611d15565b5b9291505056fea2646970667358221220d198086084359e6c2372579647010c0b3e8251278ca1a9b0b25ef492eeee607464736f6c634300081c0033",
  "linkReferences": {},
  "deployedLinkReferences": {}
}