{
  "_format": "hh-sol-artifact-1",
  "contractName": "OceanCrowdsale",
  "sourceName": "contracts/OceanCrowndsale.sol",
  "abi": [
    {
      "inputs": [
        {
          "internalType": "uint256",
          "name": "eth_rate",
          "type": "uint256"
        },
        {
          "internalType": "uint256",
          "name": "usdt_rate",
          "type": "uint256"
        },
        {
          "internalType": "address payable",
          "name": "wallet",
          "type": "address"
        },
        {
          "internalType": "contract IERC20",
          "name": "icotoken",
          "type": "address"
        }
      ],
      "stateMutability": "nonpayable",
      "type": "constructor"
    },
    {
      "inputs": [
        {
          "internalType": "address",
          "name": "owner",
          "type": "address"
        }
      ],
      "name": "OwnableInvalidOwner",
      "type": "error"
    },
    {
      "inputs": [
        {
          "internalType": "address",
          "name": "account",
          "type": "address"
        }
      ],
      "name": "OwnableUnauthorizedAccount",
      "type": "error"
    },
    {
      "inputs": [
        {
          "internalType": "address",
          "name": "token",
          "type": "address"
        }
      ],
      "name": "SafeERC20FailedOperation",
      "type": "error"
    },
    {
      "anonymous": false,
      "inputs": [
        {
          "indexed": false,
          "internalType": "address",
          "name": "buyer",
          "type": "address"
        },
        {
          "indexed": false,
          "internalType": "uint256",
          "name": "amount",
          "type": "uint256"
        }
      ],
      "name": "BuyTokenByETH",
      "type": "event"
    },
    {
      "anonymous": false,
      "inputs": [
        {
          "indexed": false,
          "internalType": "address",
          "name": "buyer",
          "type": "address"
        },
        {
          "indexed": false,
          "internalType": "uint256",
          "name": "amount",
          "type": "uint256"
        }
      ],
      "name": "BuyTokenByUSDT",
      "type": "event"
    },
    {
      "anonymous": false,
      "inputs": [
        {
          "indexed": true,
          "internalType": "address",
          "name": "previousOwner",
          "type": "address"
        },
        {
          "indexed": true,
          "internalType": "address",
          "name": "newOwner",
          "type": "address"
        }
      ],
      "name": "OwnershipTransferred",
      "type": "event"
    },
    {
      "anonymous": false,
      "inputs": [
        {
          "indexed": false,
          "internalType": "uint256",
          "name": "newRate",
          "type": "uint256"
        }
      ],
      "name": "SetETHRate",
      "type": "event"
    },
    {
      "anonymous": false,
      "inputs": [
        {
          "indexed": false,
          "internalType": "uint256",
          "name": "newRate",
          "type": "uint256"
        }
      ],
      "name": "SetUSDTRate",
      "type": "event"
    },
    {
      "anonymous": false,
      "inputs": [
        {
          "indexed": false,
          "internalType": "contract IERC20",
          "name": "tokenAddress",
          "type": "address"
        }
      ],
      "name": "SetUSDTToken",
      "type": "event"
    },
    {
      "anonymous": false,
      "inputs": [
        {
          "indexed": false,
          "internalType": "address",
          "name": "owner",
          "type": "address"
        },
        {
          "indexed": false,
          "internalType": "uint256",
          "name": "amount",
          "type": "uint256"
        }
      ],
      "name": "WithdrawERC20",
      "type": "event"
    },
    {
      "anonymous": false,
      "inputs": [
        {
          "indexed": false,
          "internalType": "address",
          "name": "owner",
          "type": "address"
        },
        {
          "indexed": false,
          "internalType": "uint256",
          "name": "amount",
          "type": "uint256"
        }
      ],
      "name": "WithdrawETH",
      "type": "event"
    },
    {
      "inputs": [],
      "name": "ETH_rate",
      "outputs": [
        {
          "internalType": "uint256",
          "name": "",
          "type": "uint256"
        }
      ],
      "stateMutability": "view",
      "type": "function"
    },
    {
      "inputs": [],
      "name": "USDT_rate",
      "outputs": [
        {
          "internalType": "uint256",
          "name": "",
          "type": "uint256"
        }
      ],
      "stateMutability": "view",
      "type": "function"
    },
    {
      "inputs": [],
      "name": "_wallet",
      "outputs": [
        {
          "internalType": "address payable",
          "name": "",
          "type": "address"
        }
      ],
      "stateMutability": "view",
      "type": "function"
    },
    {
      "inputs": [],
      "name": "buyTokenByETH",
      "outputs": [],
      "stateMutability": "payable",
      "type": "function"
    },
    {
      "inputs": [
        {
          "internalType": "uint256",
          "name": "USDTAmount",
          "type": "uint256"
        }
      ],
      "name": "buyTokenByUSDT",
      "outputs": [],
      "stateMutability": "nonpayable",
      "type": "function"
    },
    {
      "inputs": [
        {
          "internalType": "uint256",
          "name": "ETHAmount",
          "type": "uint256"
        }
      ],
      "name": "getTokenAmountETH",
      "outputs": [
        {
          "internalType": "uint256",
          "name": "",
          "type": "uint256"
        }
      ],
      "stateMutability": "view",
      "type": "function"
    },
    {
      "inputs": [
        {
          "internalType": "uint256",
          "name": "USDTAmount",
          "type": "uint256"
        }
      ],
      "name": "getTokenAmountUSDT",
      "outputs": [
        {
          "internalType": "uint256",
          "name": "",
          "type": "uint256"
        }
      ],
      "stateMutability": "view",
      "type": "function"
    },
    {
      "inputs": [],
      "name": "owner",
      "outputs": [
        {
          "internalType": "address",
          "name": "",
          "type": "address"
        }
      ],
      "stateMutability": "view",
      "type": "function"
    },
    {
      "inputs": [],
      "name": "renounceOwnership",
      "outputs": [],
      "stateMutability": "nonpayable",
      "type": "function"
    },
    {
      "inputs": [
        {
          "internalType": "uint256",
          "name": "new_rate",
          "type": "uint256"
        }
      ],
      "name": "setETHRate",
      "outputs": [],
      "stateMutability": "nonpayable",
      "type": "function"
    },
    {
      "inputs": [
        {
          "internalType": "uint256",
          "name": "new_rate",
          "type": "uint256"
        }
      ],
      "name": "setUSDTRate",
      "outputs": [],
      "stateMutability": "nonpayable",
      "type": "function"
    },
    {
      "inputs": [
        {
          "internalType": "contract IERC20",
          "name": "token_address",
          "type": "address"
        }
      ],
      "name": "setUSDTToken",
      "outputs": [],
      "stateMutability": "nonpayable",
      "type": "function"
    },
    {
      "inputs": [],
      "name": "token",
      "outputs": [
        {
          "internalType": "contract IERC20",
          "name": "",
          "type": "address"
        }
      ],
      "stateMutability": "view",
      "type": "function"
    },
    {
      "inputs": [
        {
          "internalType": "address",
          "name": "newOwner",
          "type": "address"
        }
      ],
      "name": "transferOwnership",
      "outputs": [],
      "stateMutability": "nonpayable",
      "type": "function"
    },
    {
      "inputs": [],
      "name": "usdtToken",
      "outputs": [
        {
          "internalType": "contract IERC20",
          "name": "",
          "type": "address"
        }
      ],
      "stateMutability": "view",
      "type": "function"
    },
    {
      "inputs": [],
      "name": "withdraw",
      "outputs": [],
      "stateMutability": "nonpayable",
      "type": "function"
    },
    {
      "inputs": [],
      "name": "withdrawErc20",
      "outputs": [],
      "stateMutability": "nonpayable",
      "type": "function"
    }
  ],
  "bytecode": "0x608060405234801561001057600080fd5b5060405161226f38038061226f8339818101604052810190610032919061045f565b33600073ffffffffffffffffffffffffffffffffffffffff168173ffffffffffffffffffffffffffffffffffffffff16036100a55760006040517f1e4fbdf700000000000000000000000000000000000000000000000000000000815260040161009c91906104d5565b60405180910390fd5b6100b4816102b260201b60201c565b50600084116100f8576040517f08c379a00000000000000000000000000000000000000000000000000000000081526004016100ef9061054d565b60405180910390fd5b6000831161013b576040517f08c379a0000000000000000000000000000000000000000000000000000000008152600401610132906105b9565b60405180910390fd5b600073ffffffffffffffffffffffffffffffffffffffff168273ffffffffffffffffffffffffffffffffffffffff16036101aa576040517f08c379a00000000000000000000000000000000000000000000000000000000081526004016101a190610625565b60405180910390fd5b600073ffffffffffffffffffffffffffffffffffffffff168173ffffffffffffffffffffffffffffffffffffffff1603610219576040517f08c379a000000000000000000000000000000000000000000000000000000000815260040161021090610691565b60405180910390fd5b836002819055508260038190555081600160006101000a81548173ffffffffffffffffffffffffffffffffffffffff021916908373ffffffffffffffffffffffffffffffffffffffff16021790555080600460006101000a81548173ffffffffffffffffffffffffffffffffffffffff021916908373ffffffffffffffffffffffffffffffffffffffff160217905550505050506106b1565b60008060009054906101000a900473ffffffffffffffffffffffffffffffffffffffff169050816000806101000a81548173ffffffffffffffffffffffffffffffffffffffff021916908373ffffffffffffffffffffffffffffffffffffffff1602179055508173ffffffffffffffffffffffffffffffffffffffff168173ffffffffffffffffffffffffffffffffffffffff167f8be0079c531659141344cd1fd0a4f28419497f9722a3daafe3b4186f6b6457e060405160405180910390a35050565b600080fd5b6000819050919050565b61038e8161037b565b811461039957600080fd5b50565b6000815190506103ab81610385565b92915050565b600073ffffffffffffffffffffffffffffffffffffffff82169050919050565b60006103dc826103b1565b9050919050565b6103ec816103d1565b81146103f757600080fd5b50565b600081519050610409816103e3565b92915050565b600061041a826103b1565b9050919050565b600061042c8261040f565b9050919050565b61043c81610421565b811461044757600080fd5b50565b60008151905061045981610433565b92915050565b6000806000806080858703121561047957610478610376565b5b60006104878782880161039c565b94505060206104988782880161039c565b93505060406104a9878288016103fa565b92505060606104ba8782880161044a565b91505092959194509250565b6104cf8161040f565b82525050565b60006020820190506104ea60008301846104c6565b92915050565b600082825260208201905092915050565b7f4554482072617465206d7573742062652067726561746572207468616e203000600082015250565b6000610537601f836104f0565b915061054282610501565b602082019050919050565b600060208201905081810360008301526105668161052a565b9050919050565b7f555344542072617465206d7573742062652067726561746572207468616e2030600082015250565b60006105a36020836104f0565b91506105ae8261056d565b602082019050919050565b600060208201905081810360008301526105d281610596565b9050919050565b7f57616c6c65742063616e6e6f74206265207a65726f2061646472657373000000600082015250565b600061060f601d836104f0565b915061061a826105d9565b602082019050919050565b6000602082019050818103600083015261063e81610602565b9050919050565b7f546f6b656e2063616e6e6f74206265207a65726f206164647265737300000000600082015250565b600061067b601c836104f0565b915061068682610645565b602082019050919050565b600060208201905081810360008301526106aa8161066e565b9050919050565b611baf806106c06000396000f3fe6080604052600436106100fe5760003560e01c8063715018a611610095578063a98ad46c11610064578063a98ad46c146102b6578063c5d15651146102e1578063e1e851891461030a578063f2fde38b14610347578063fc0c546a14610370576100fe565b8063715018a61461023f5780638909a40f146102565780638da5cb5b146102605780639cb7b9fc1461028b576100fe565b80634bfe2779116100d15780634bfe277914610197578063592a00e4146101c0578063610757e4146101eb57806366e226bd14610216576100fe565b80631832d8b6146101035780631b4622d6146101405780633ccfd60b146101695780633e3f235914610180575b600080fd5b34801561010f57600080fd5b5061012a6004803603810190610125919061138e565b61039b565b60405161013791906113ca565b60405180910390f35b34801561014c57600080fd5b506101676004803603810190610162919061138e565b610449565b005b34801561017557600080fd5b5061017e6104d5565b005b34801561018c57600080fd5b50610195610565565b005b3480156101a357600080fd5b506101be60048036038101906101b9919061138e565b6106ea565b005b3480156101cc57600080fd5b506101d5610776565b6040516101e291906113ca565b60405180910390f35b3480156101f757600080fd5b5061020061077c565b60405161020d9190611426565b60405180910390f35b34801561022257600080fd5b5061023d60048036038101906102389190611491565b6107a2565b005b34801561024b57600080fd5b50610254610894565b005b61025e6108a8565b005b34801561026c57600080fd5b50610275610b08565b60405161028291906114cd565b60405180910390f35b34801561029757600080fd5b506102a0610b31565b6040516102ad91906113ca565b60405180910390f35b3480156102c257600080fd5b506102cb610b37565b6040516102d89190611547565b60405180910390f35b3480156102ed57600080fd5b506103086004803603810190610303919061138e565b610b5d565b005b34801561031657600080fd5b50610331600480360381019061032c919061138e565b610f03565b60405161033e91906113ca565b60405180910390f35b34801561035357600080fd5b5061036e6004803603810190610369919061158e565b610fb1565b005b34801561037c57600080fd5b50610385611037565b6040516103929190611547565b60405180910390f35b60008082116103df576040517f08c379a00000000000000000000000000000000000000000000000000000000081526004016103d69061163e565b60405180910390fd5b6000600354836103ef919061168d565b9050826003548261040091906116fe565b14610440576040517f08c379a00000000000000000000000000000000000000000000000000000000081526004016104379061177b565b60405180910390fd5b80915050919050565b61045161105d565b60008111610494576040517f08c379a000000000000000000000000000000000000000000000000000000000815260040161048b906117e7565b60405180910390fd5b806003819055507fbdaa37e3f6679857d8c3e80d172bd45af732a8658cf1d690c81ca96f5a443b5b816040516104ca91906113ca565b60405180910390a150565b6104dd61105d565b60004790503373ffffffffffffffffffffffffffffffffffffffff166108fc829081150290604051600060405180830381858888f19350505050158015610528573d6000803e3d6000fd5b507f566e45b1c8057e725bf62796a7f1d37ae294393cab069725a09daddd1af98b79338260405161055a929190611807565b60405180910390a150565b61056d61105d565b6000600560009054906101000a900473ffffffffffffffffffffffffffffffffffffffff1673ffffffffffffffffffffffffffffffffffffffff166370a08231306040518263ffffffff1660e01b81526004016105ca91906114cd565b602060405180830381865afa1580156105e7573d6000803e3d6000fd5b505050506040513d601f19601f8201168201806040525081019061060b9190611845565b9050600560009054906101000a900473ffffffffffffffffffffffffffffffffffffffff1673ffffffffffffffffffffffffffffffffffffffff1663a9059cbb33836040518363ffffffff1660e01b815260040161066a929190611807565b6020604051808303816000875af1158015610689573d6000803e3d6000fd5b505050506040513d601f19601f820116820180604052508101906106ad91906118aa565b507fbe7426aee8a34d0263892b55ce65ce81d8f4c806eb4719e59015ea49feb92d2233826040516106df929190611807565b60405180910390a150565b6106f261105d565b60008111610735576040517f08c379a000000000000000000000000000000000000000000000000000000000815260040161072c906117e7565b60405180910390fd5b806002819055507fd6f234ccd3d6bc89db22f04e915efd024c0f4bddfaa8393e570fff7e3e3dec978160405161076b91906113ca565b60405180910390a150565b60035481565b600160009054906101000a900473ffffffffffffffffffffffffffffffffffffffff1681565b6107aa61105d565b600073ffffffffffffffffffffffffffffffffffffffff168173ffffffffffffffffffffffffffffffffffffffff1603610819576040517f08c379a000000000000000000000000000000000000000000000000000000000815260040161081090611923565b60405180910390fd5b80600560006101000a81548173ffffffffffffffffffffffffffffffffffffffff021916908373ffffffffffffffffffffffffffffffffffffffff1602179055507f43036333e58a6f9255617b54ec9f5825590c8ee695a222dc35e5001927f07151816040516108899190611547565b60405180910390a150565b61089c61105d565b6108a660006110e4565b565b600034905060006108b882610f03565b9050600081116108fd576040517f08c379a00000000000000000000000000000000000000000000000000000000081526004016108f49061198f565b60405180910390fd5b80600460009054906101000a900473ffffffffffffffffffffffffffffffffffffffff1673ffffffffffffffffffffffffffffffffffffffff166370a08231306040518263ffffffff1660e01b815260040161095991906114cd565b602060405180830381865afa158015610976573d6000803e3d6000fd5b505050506040513d601f19601f8201168201806040525081019061099a9190611845565b10156109db576040517f08c379a00000000000000000000000000000000000000000000000000000000081526004016109d2906119fb565b60405180910390fd5b813373ffffffffffffffffffffffffffffffffffffffff16311015610a35576040517f08c379a0000000000000000000000000000000000000000000000000000000008152600401610a2c906119fb565b60405180910390fd5b600160009054906101000a900473ffffffffffffffffffffffffffffffffffffffff1673ffffffffffffffffffffffffffffffffffffffff166108fc839081150290604051600060405180830381858888f19350505050158015610a9d573d6000803e3d6000fd5b50610acb600460009054906101000a900473ffffffffffffffffffffffffffffffffffffffff1633836111a8565b7fbab06efe910ba7896db8b04299fef8209e3d94545ac7115a3d064449381337bc3382604051610afc929190611807565b60405180910390a15050565b60008060009054906101000a900473ffffffffffffffffffffffffffffffffffffffff16905090565b60025481565b600560009054906101000a900473ffffffffffffffffffffffffffffffffffffffff1681565b6000610b688261039b565b905060008111610bad576040517f08c379a0000000000000000000000000000000000000000000000000000000008152600401610ba49061198f565b60405180910390fd5b80600460009054906101000a900473ffffffffffffffffffffffffffffffffffffffff1673ffffffffffffffffffffffffffffffffffffffff166370a08231306040518263ffffffff1660e01b8152600401610c0991906114cd565b602060405180830381865afa158015610c26573d6000803e3d6000fd5b505050506040513d601f19601f82011682018060405250810190610c4a9190611845565b1015610c8b576040517f08c379a0000000000000000000000000000000000000000000000000000000008152600401610c82906119fb565b60405180910390fd5b81600560009054906101000a900473ffffffffffffffffffffffffffffffffffffffff1673ffffffffffffffffffffffffffffffffffffffff166370a08231336040518263ffffffff1660e01b8152600401610ce791906114cd565b602060405180830381865afa158015610d04573d6000803e3d6000fd5b505050506040513d601f19601f82011682018060405250810190610d289190611845565b1015610d69576040517f08c379a0000000000000000000000000000000000000000000000000000000008152600401610d60906119fb565b60405180910390fd5b81600560009054906101000a900473ffffffffffffffffffffffffffffffffffffffff1673ffffffffffffffffffffffffffffffffffffffff1663dd62ed3e33306040518363ffffffff1660e01b8152600401610dc7929190611a1b565b602060405180830381865afa158015610de4573d6000803e3d6000fd5b505050506040513d601f19601f82011682018060405250810190610e089190611845565b1015610e49576040517f08c379a0000000000000000000000000000000000000000000000000000000008152600401610e4090611a90565b60405180910390fd5b610e99600560009054906101000a900473ffffffffffffffffffffffffffffffffffffffff1633600160009054906101000a900473ffffffffffffffffffffffffffffffffffffffff1685611227565b610ec6600460009054906101000a900473ffffffffffffffffffffffffffffffffffffffff1633836111a8565b7f5c0161fad3fa89cfebd4a74115d9f81661cdd1b9008d05a238ea9d65088e20643382604051610ef7929190611807565b60405180910390a15050565b6000808211610f47576040517f08c379a0000000000000000000000000000000000000000000000000000000008152600401610f3e90611b22565b60405180910390fd5b600060025483610f57919061168d565b90508260025482610f6891906116fe565b14610fa8576040517f08c379a0000000000000000000000000000000000000000000000000000000008152600401610f9f9061177b565b60405180910390fd5b80915050919050565b610fb961105d565b600073ffffffffffffffffffffffffffffffffffffffff168173ffffffffffffffffffffffffffffffffffffffff160361102b5760006040517f1e4fbdf700000000000000000000000000000000000000000000000000000000815260040161102291906114cd565b60405180910390fd5b611034816110e4565b50565b600460009054906101000a900473ffffffffffffffffffffffffffffffffffffffff1681565b6110656112a9565b73ffffffffffffffffffffffffffffffffffffffff16611083610b08565b73ffffffffffffffffffffffffffffffffffffffff16146110e2576110a66112a9565b6040517f118cdaa70000000000000000000000000000000000000000000000000000000081526004016110d991906114cd565b60405180910390fd5b565b60008060009054906101000a900473ffffffffffffffffffffffffffffffffffffffff169050816000806101000a81548173ffffffffffffffffffffffffffffffffffffffff021916908373ffffffffffffffffffffffffffffffffffffffff1602179055508173ffffffffffffffffffffffffffffffffffffffff168173ffffffffffffffffffffffffffffffffffffffff167f8be0079c531659141344cd1fd0a4f28419497f9722a3daafe3b4186f6b6457e060405160405180910390a35050565b611222838473ffffffffffffffffffffffffffffffffffffffff1663a9059cbb85856040516024016111db929190611807565b604051602081830303815290604052915060e01b6020820180517bffffffffffffffffffffffffffffffffffffffffffffffffffffffff83818316178352505050506112b1565b505050565b6112a3848573ffffffffffffffffffffffffffffffffffffffff166323b872dd86868660405160240161125c93929190611b42565b604051602081830303815290604052915060e01b6020820180517bffffffffffffffffffffffffffffffffffffffffffffffffffffffff83818316178352505050506112b1565b50505050565b600033905090565b600080602060008451602086016000885af1806112d4576040513d6000823e3d81fd5b3d9250600051915050600082146112ef57600181141561130b565b60008473ffffffffffffffffffffffffffffffffffffffff163b145b1561134d57836040517f5274afe700000000000000000000000000000000000000000000000000000000815260040161134491906114cd565b60405180910390fd5b50505050565b600080fd5b6000819050919050565b61136b81611358565b811461137657600080fd5b50565b60008135905061138881611362565b92915050565b6000602082840312156113a4576113a3611353565b5b60006113b284828501611379565b91505092915050565b6113c481611358565b82525050565b60006020820190506113df60008301846113bb565b92915050565b600073ffffffffffffffffffffffffffffffffffffffff82169050919050565b6000611410826113e5565b9050919050565b61142081611405565b82525050565b600060208201905061143b6000830184611417565b92915050565b600061144c826113e5565b9050919050565b600061145e82611441565b9050919050565b61146e81611453565b811461147957600080fd5b50565b60008135905061148b81611465565b92915050565b6000602082840312156114a7576114a6611353565b5b60006114b58482850161147c565b91505092915050565b6114c781611441565b82525050565b60006020820190506114e260008301846114be565b92915050565b6000819050919050565b600061150d611508611503846113e5565b6114e8565b6113e5565b9050919050565b600061151f826114f2565b9050919050565b600061153182611514565b9050919050565b61154181611526565b82525050565b600060208201905061155c6000830184611538565b92915050565b61156b81611441565b811461157657600080fd5b50565b60008135905061158881611562565b92915050565b6000602082840312156115a4576115a3611353565b5b60006115b284828501611579565b91505092915050565b600082825260208201905092915050565b7f5553445420616d6f756e74206d7573742062652067726561746572207468616e60008201527f2030000000000000000000000000000000000000000000000000000000000000602082015250565b60006116286022836115bb565b9150611633826115cc565b604082019050919050565b600060208201905081810360008301526116578161161b565b9050919050565b7f4e487b7100000000000000000000000000000000000000000000000000000000600052601160045260246000fd5b600061169882611358565b91506116a383611358565b92508282026116b181611358565b915082820484148315176116c8576116c761165e565b5b5092915050565b7f4e487b7100000000000000000000000000000000000000000000000000000000600052601260045260246000fd5b600061170982611358565b915061171483611358565b925082611724576117236116cf565b5b828204905092915050565b7f4d756c7469706c69636174696f6e206f766572666c6f77000000000000000000600082015250565b60006117656017836115bb565b91506117708261172f565b602082019050919050565b6000602082019050818103600083015261179481611758565b9050919050565b7f52617465206d7573742062652067726561746572207468616e20300000000000600082015250565b60006117d1601b836115bb565b91506117dc8261179b565b602082019050919050565b60006020820190508181036000830152611800816117c4565b9050919050565b600060408201905061181c60008301856114be565b61182960208301846113bb565b9392505050565b60008151905061183f81611362565b92915050565b60006020828403121561185b5761185a611353565b5b600061186984828501611830565b91505092915050565b60008115159050919050565b61188781611872565b811461189257600080fd5b50565b6000815190506118a48161187e565b92915050565b6000602082840312156118c0576118bf611353565b5b60006118ce84828501611895565b91505092915050565b7f546f6b656e2063616e6e6f74206265207a65726f206164647265737300000000600082015250565b600061190d601c836115bb565b9150611918826118d7565b602082019050919050565b6000602082019050818103600083015261193c81611900565b9050919050565b7f416d6f756e74206973207a65726f000000000000000000000000000000000000600082015250565b6000611979600e836115bb565b915061198482611943565b602082019050919050565b600060208201905081810360008301526119a88161196c565b9050919050565b7f496e73756666696369656e74206163636f756e742062616c616e636500000000600082015250565b60006119e5601c836115bb565b91506119f0826119af565b602082019050919050565b60006020820190508181036000830152611a14816119d8565b9050919050565b6000604082019050611a3060008301856114be565b611a3d60208301846114be565b9392505050565b7f4e65656420746f20617070726f76652055534454206669727374000000000000600082015250565b6000611a7a601a836115bb565b9150611a8582611a44565b602082019050919050565b60006020820190508181036000830152611aa981611a6d565b9050919050565b7f45544820616d6f756e74206d7573742062652067726561746572207468616e2060008201527f3000000000000000000000000000000000000000000000000000000000000000602082015250565b6000611b0c6021836115bb565b9150611b1782611ab0565b604082019050919050565b60006020820190508181036000830152611b3b81611aff565b9050919050565b6000606082019050611b5760008301866114be565b611b6460208301856114be565b611b7160408301846113bb565b94935050505056fea2646970667358221220d4654116bdd60d06c96dbbdfa91f505cbab225e013e58f1bfbdbb63a4879ea9064736f6c634300081c0033",
  "linkReferences": {},
  "deployedLinkReferences": {}
}