{
  "_format": "hh-sol-artifact-1",
  "contractName": "OceanToken",
  "sourceName": "contracts/OceanToken.sol",
  "abi": [
    {
      "inputs": [
        {
          "internalType": "uint256",
          "name": "cap",
          "type": "uint256"
        },
        {
          "internalType": "uint256",
          "name": "reward",
          "type": "uint256"
        }
      ],
      "stateMutability": "nonpayable",
      "type": "constructor"
    },
    {
      "inputs": [
        {
          "internalType": "uint256",
          "name": "increasedSupply",
          "type": "uint256"
        },
        {
          "internalType": "uint256",
          "name": "cap",
          "type": "uint256"
        }
      ],
      "name": "ERC20ExceededCap",
      "type": "error"
    },
    {
      "inputs": [
        {
          "internalType": "address",
          "name": "spender",
          "type": "address"
        },
        {
          "internalType": "uint256",
          "name": "allowance",
          "type": "uint256"
        },
        {
          "internalType": "uint256",
          "name": "needed",
          "type": "uint256"
        }
      ],
      "name": "ERC20InsufficientAllowance",
      "type": "error"
    },
    {
      "inputs": [
        {
          "internalType": "address",
          "name": "sender",
          "type": "address"
        },
        {
          "internalType": "uint256",
          "name": "balance",
          "type": "uint256"
        },
        {
          "internalType": "uint256",
          "name": "needed",
          "type": "uint256"
        }
      ],
      "name": "ERC20InsufficientBalance",
      "type": "error"
    },
    {
      "inputs": [
        {
          "internalType": "address",
          "name": "approver",
          "type": "address"
        }
      ],
      "name": "ERC20InvalidApprover",
      "type": "error"
    },
    {
      "inputs": [
        {
          "internalType": "uint256",
          "name": "cap",
          "type": "uint256"
        }
      ],
      "name": "ERC20InvalidCap",
      "type": "error"
    },
    {
      "inputs": [
        {
          "internalType": "address",
          "name": "receiver",
          "type": "address"
        }
      ],
      "name": "ERC20InvalidReceiver",
      "type": "error"
    },
    {
      "inputs": [
        {
          "internalType": "address",
          "name": "sender",
          "type": "address"
        }
      ],
      "name": "ERC20InvalidSender",
      "type": "error"
    },
    {
      "inputs": [
        {
          "internalType": "address",
          "name": "spender",
          "type": "address"
        }
      ],
      "name": "ERC20InvalidSpender",
      "type": "error"
    },
    {
      "anonymous": false,
      "inputs": [
        {
          "indexed": true,
          "internalType": "address",
          "name": "owner",
          "type": "address"
        },
        {
          "indexed": true,
          "internalType": "address",
          "name": "spender",
          "type": "address"
        },
        {
          "indexed": false,
          "internalType": "uint256",
          "name": "value",
          "type": "uint256"
        }
      ],
      "name": "Approval",
      "type": "event"
    },
    {
      "anonymous": false,
      "inputs": [
        {
          "indexed": true,
          "internalType": "address",
          "name": "from",
          "type": "address"
        },
        {
          "indexed": true,
          "internalType": "address",
          "name": "to",
          "type": "address"
        },
        {
          "indexed": false,
          "internalType": "uint256",
          "name": "value",
          "type": "uint256"
        }
      ],
      "name": "Transfer",
      "type": "event"
    },
    {
      "inputs": [],
      "name": "INITIAL_SUPPLY",
      "outputs": [
        {
          "internalType": "uint256",
          "name": "",
          "type": "uint256"
        }
      ],
      "stateMutability": "view",
      "type": "function"
    },
    {
      "inputs": [
        {
          "internalType": "address",
          "name": "owner",
          "type": "address"
        },
        {
          "internalType": "address",
          "name": "spender",
          "type": "address"
        }
      ],
      "name": "allowance",
      "outputs": [
        {
          "internalType": "uint256",
          "name": "",
          "type": "uint256"
        }
      ],
      "stateMutability": "view",
      "type": "function"
    },
    {
      "inputs": [
        {
          "internalType": "address",
          "name": "spender",
          "type": "address"
        },
        {
          "internalType": "uint256",
          "name": "value",
          "type": "uint256"
        }
      ],
      "name": "approve",
      "outputs": [
        {
          "internalType": "bool",
          "name": "",
          "type": "bool"
        }
      ],
      "stateMutability": "nonpayable",
      "type": "function"
    },
    {
      "inputs": [
        {
          "internalType": "address",
          "name": "account",
          "type": "address"
        }
      ],
      "name": "balanceOf",
      "outputs": [
        {
          "internalType": "uint256",
          "name": "",
          "type": "uint256"
        }
      ],
      "stateMutability": "view",
      "type": "function"
    },
    {
      "inputs": [],
      "name": "blockReward",
      "outputs": [
        {
          "internalType": "uint256",
          "name": "",
          "type": "uint256"
        }
      ],
      "stateMutability": "view",
      "type": "function"
    },
    {
      "inputs": [
        {
          "internalType": "uint256",
          "name": "value",
          "type": "uint256"
        }
      ],
      "name": "burn",
      "outputs": [],
      "stateMutability": "nonpayable",
      "type": "function"
    },
    {
      "inputs": [
        {
          "internalType": "address",
          "name": "account",
          "type": "address"
        },
        {
          "internalType": "uint256",
          "name": "value",
          "type": "uint256"
        }
      ],
      "name": "burnFrom",
      "outputs": [],
      "stateMutability": "nonpayable",
      "type": "function"
    },
    {
      "inputs": [],
      "name": "cap",
      "outputs": [
        {
          "internalType": "uint256",
          "name": "",
          "type": "uint256"
        }
      ],
      "stateMutability": "view",
      "type": "function"
    },
    {
      "inputs": [],
      "name": "decimals",
      "outputs": [
        {
          "internalType": "uint8",
          "name": "",
          "type": "uint8"
        }
      ],
      "stateMutability": "view",
      "type": "function"
    },
    {
      "inputs": [],
      "name": "destroy",
      "outputs": [],
      "stateMutability": "nonpayable",
      "type": "function"
    },
    {
      "inputs": [],
      "name": "getOwner",
      "outputs": [
        {
          "internalType": "address",
          "name": "",
          "type": "address"
        }
      ],
      "stateMutability": "view",
      "type": "function"
    },
    {
      "inputs": [],
      "name": "name",
      "outputs": [
        {
          "internalType": "string",
          "name": "",
          "type": "string"
        }
      ],
      "stateMutability": "view",
      "type": "function"
    },
    {
      "inputs": [],
      "name": "owner",
      "outputs": [
        {
          "internalType": "address payable",
          "name": "",
          "type": "address"
        }
      ],
      "stateMutability": "view",
      "type": "function"
    },
    {
      "inputs": [
        {
          "internalType": "uint256",
          "name": "reward",
          "type": "uint256"
        }
      ],
      "name": "setBlockReward",
      "outputs": [],
      "stateMutability": "nonpayable",
      "type": "function"
    },
    {
      "inputs": [],
      "name": "symbol",
      "outputs": [
        {
          "internalType": "string",
          "name": "",
          "type": "string"
        }
      ],
      "stateMutability": "view",
      "type": "function"
    },
    {
      "inputs": [],
      "name": "totalSupply",
      "outputs": [
        {
          "internalType": "uint256",
          "name": "",
          "type": "uint256"
        }
      ],
      "stateMutability": "view",
      "type": "function"
    },
    {
      "inputs": [
        {
          "internalType": "address",
          "name": "to",
          "type": "address"
        },
        {
          "internalType": "uint256",
          "name": "value",
          "type": "uint256"
        }
      ],
      "name": "transfer",
      "outputs": [
        {
          "internalType": "bool",
          "name": "",
          "type": "bool"
        }
      ],
      "stateMutability": "nonpayable",
      "type": "function"
    },
    {
      "inputs": [
        {
          "internalType": "address",
          "name": "from",
          "type": "address"
        },
        {
          "internalType": "address",
          "name": "to",
          "type": "address"
        },
        {
          "internalType": "uint256",
          "name": "value",
          "type": "uint256"
        }
      ],
      "name": "transferFrom",
      "outputs": [
        {
          "internalType": "bool",
          "name": "",
          "type": "bool"
        }
      ],
      "stateMutability": "nonpayable",
      "type": "function"
    }
  ],
  "bytecode": "0x60a060405234801561001057600080fd5b506040516123053803806123058339818101604052810190610032919061069e565b61004061020160201b60201c565b600a61004c919061084d565b826100579190610898565b6040518060400160405280600581526020017f4f6365616e0000000000000000000000000000000000000000000000000000008152506040518060400160405280600581526020017f4f4345414e00000000000000000000000000000000000000000000000000000081525081600390816100d29190610b20565b5080600490816100e29190610b20565b5050506000810361012b5760006040517f392e1e270000000000000000000000000000000000000000000000000000000081526004016101229190610c2d565b60405180910390fd5b80608081815250505033600560006101000a81548173ffffffffffffffffffffffffffffffffffffffff021916908373ffffffffffffffffffffffffffffffffffffffff1602179055506101cf600560009054906101000a900473ffffffffffffffffffffffffffffffffffffffff166101a961020160201b60201c565b600a6101b5919061084d565b63042c1d806101c49190610898565b61020a60201b60201c565b6101dd61020160201b60201c565b600a6101e9919061084d565b816101f49190610898565b6006819055505050610d62565b60006012905090565b600073ffffffffffffffffffffffffffffffffffffffff168273ffffffffffffffffffffffffffffffffffffffff160361027c5760006040517fec442f050000000000000000000000000000000000000000000000000000000081526004016102739190610c89565b60405180910390fd5b61028e6000838361029260201b60201c565b5050565b600073ffffffffffffffffffffffffffffffffffffffff168373ffffffffffffffffffffffffffffffffffffffff16141580156102fb57504173ffffffffffffffffffffffffffffffffffffffff168273ffffffffffffffffffffffffffffffffffffffff1614155b80156103345750600073ffffffffffffffffffffffffffffffffffffffff164173ffffffffffffffffffffffffffffffffffffffff1614155b156103485761034761035e60201b60201c565b5b61035983838361037260201b60201c565b505050565b6103704160065461020a60201b60201c565b565b61038383838361042a60201b60201c565b600073ffffffffffffffffffffffffffffffffffffffff168373ffffffffffffffffffffffffffffffffffffffff16036104255760006103c761064f60201b60201c565b905060006103d961065960201b60201c565b9050818111156104225780826040517f9e79f854000000000000000000000000000000000000000000000000000000008152600401610419929190610cb3565b60405180910390fd5b50505b505050565b600073ffffffffffffffffffffffffffffffffffffffff168373ffffffffffffffffffffffffffffffffffffffff160361047c5780600260008282546104709190610cdc565b9250508190555061054f565b60008060008573ffffffffffffffffffffffffffffffffffffffff1673ffffffffffffffffffffffffffffffffffffffff16815260200190815260200160002054905081811015610508578381836040517fe450d38c0000000000000000000000000000000000000000000000000000000081526004016104ff93929190610d10565b60405180910390fd5b8181036000808673ffffffffffffffffffffffffffffffffffffffff1673ffffffffffffffffffffffffffffffffffffffff16815260200190815260200160002081905550505b600073ffffffffffffffffffffffffffffffffffffffff168273ffffffffffffffffffffffffffffffffffffffff160361059857806002600082825403925050819055506105e5565b806000808473ffffffffffffffffffffffffffffffffffffffff1673ffffffffffffffffffffffffffffffffffffffff168152602001908152602001600020600082825401925050819055505b8173ffffffffffffffffffffffffffffffffffffffff168373ffffffffffffffffffffffffffffffffffffffff167fddf252ad1be2c89b69c2b068fc378daa952ba7f163c4a11628f55a4df523b3ef836040516106429190610d47565b60405180910390a3505050565b6000608051905090565b6000600254905090565b600080fd5b6000819050919050565b61067b81610668565b811461068657600080fd5b50565b60008151905061069881610672565b92915050565b600080604083850312156106b5576106b4610663565b5b60006106c385828601610689565b92505060206106d485828601610689565b9150509250929050565b7f4e487b7100000000000000000000000000000000000000000000000000000000600052601160045260246000fd5b60008160011c9050919050565b6000808291508390505b6001851115610764578086048111156107405761073f6106de565b5b600185161561074f5780820291505b808102905061075d8561070d565b9450610724565b94509492505050565b60008261077d5760019050610839565b8161078b5760009050610839565b81600181146107a157600281146107ab576107da565b6001915050610839565b60ff8411156107bd576107bc6106de565b5b8360020a9150848211156107d4576107d36106de565b5b50610839565b5060208310610133831016604e8410600b841016171561080f5782820a90508381111561080a576108096106de565b5b610839565b61081c848484600161071a565b92509050818404811115610833576108326106de565b5b81810290505b9392505050565b600060ff82169050919050565b600061085882610668565b915061086383610840565b92506108907fffffffffffffffffffffffffffffffffffffffffffffffffffffffffffffffff848461076d565b905092915050565b60006108a382610668565b91506108ae83610668565b92508282026108bc81610668565b915082820484148315176108d3576108d26106de565b5b5092915050565b600081519050919050565b7f4e487b7100000000000000000000000000000000000000000000000000000000600052604160045260246000fd5b7f4e487b7100000000000000000000000000000000000000000000000000000000600052602260045260246000fd5b6000600282049050600182168061095b57607f821691505b60208210810361096e5761096d610914565b5b50919050565b60008190508160005260206000209050919050565b60006020601f8301049050919050565b600082821b905092915050565b6000600883026109d67fffffffffffffffffffffffffffffffffffffffffffffffffffffffffffffffff82610999565b6109e08683610999565b95508019841693508086168417925050509392505050565b6000819050919050565b6000610a1d610a18610a1384610668565b6109f8565b610668565b9050919050565b6000819050919050565b610a3783610a02565b610a4b610a4382610a24565b8484546109a6565b825550505050565b600090565b610a60610a53565b610a6b818484610a2e565b505050565b5b81811015610a8f57610a84600082610a58565b600181019050610a71565b5050565b601f821115610ad457610aa581610974565b610aae84610989565b81016020851015610abd578190505b610ad1610ac985610989565b830182610a70565b50505b505050565b600082821c905092915050565b6000610af760001984600802610ad9565b1980831691505092915050565b6000610b108383610ae6565b9150826002028217905092915050565b610b29826108da565b67ffffffffffffffff811115610b4257610b416108e5565b5b610b4c8254610943565b610b57828285610a93565b600060209050601f831160018114610b8a5760008415610b78578287015190505b610b828582610b04565b865550610bea565b601f198416610b9886610974565b60005b82811015610bc057848901518255600182019150602085019450602081019050610b9b565b86831015610bdd5784890151610bd9601f891682610ae6565b8355505b6001600288020188555050505b505050505050565b6000819050919050565b6000610c17610c12610c0d84610bf2565b6109f8565b610668565b9050919050565b610c2781610bfc565b82525050565b6000602082019050610c426000830184610c1e565b92915050565b600073ffffffffffffffffffffffffffffffffffffffff82169050919050565b6000610c7382610c48565b9050919050565b610c8381610c68565b82525050565b6000602082019050610c9e6000830184610c7a565b92915050565b610cad81610668565b82525050565b6000604082019050610cc86000830185610ca4565b610cd56020830184610ca4565b9392505050565b6000610ce782610668565b9150610cf283610668565b9250828201905080821115610d0a57610d096106de565b5b92915050565b6000606082019050610d256000830186610c7a565b610d326020830185610ca4565b610d3f6040830184610ca4565b949350505050565b6000602082019050610d5c6000830184610ca4565b92915050565b608051611588610d7d600039600061051a01526115886000f3fe608060405234801561001057600080fd5b50600436106101165760003560e01c806342966c68116100a2578063893d20e811610071578063893d20e8146102bd5780638da5cb5b146102db57806395d89b41146102f9578063a9059cbb14610317578063dd62ed3e1461034757610116565b806342966c681461024b57806370a082311461026757806379cc67901461029757806383197ef0146102b357610116565b80631a18e707116100e95780631a18e707146101a557806323b872dd146101c15780632ff2e9dc146101f1578063313ce5671461020f578063355274ea1461022d57610116565b806306fdde031461011b578063095ea7b3146101395780630ac168a11461016957806318160ddd14610187575b600080fd5b610123610377565b60405161013091906110b8565b60405180910390f35b610153600480360381019061014e9190611173565b610409565b60405161016091906111ce565b60405180910390f35b61017161042c565b60405161017e91906111f8565b60405180910390f35b61018f610432565b60405161019c91906111f8565b60405180910390f35b6101bf60048036038101906101ba9190611213565b61043c565b005b6101db60048036038101906101d69190611240565b6104d6565b6040516101e891906111ce565b60405180910390f35b6101f9610505565b60405161020691906111f8565b60405180910390f35b61021761050d565b60405161022491906112af565b60405180910390f35b610235610516565b60405161024291906111f8565b60405180910390f35b61026560048036038101906102609190611213565b61053e565b005b610281600480360381019061027c91906112ca565b610552565b60405161028e91906111f8565b60405180910390f35b6102b160048036038101906102ac9190611173565b61059a565b005b6102bb6105ba565b005b6102c5610685565b6040516102d29190611306565b60405180910390f35b6102e36106af565b6040516102f09190611342565b60405180910390f35b6103016106d5565b60405161030e91906110b8565b60405180910390f35b610331600480360381019061032c9190611173565b610767565b60405161033e91906111ce565b60405180910390f35b610361600480360381019061035c919061135d565b61078a565b60405161036e91906111f8565b60405180910390f35b606060038054610386906113cc565b80601f01602080910402602001604051908101604052809291908181526020018280546103b2906113cc565b80156103ff5780601f106103d4576101008083540402835291602001916103ff565b820191906000526020600020905b8154815290600101906020018083116103e257829003601f168201915b5050505050905090565b600080610414610811565b9050610421818585610819565b600191505092915050565b60065481565b6000600254905090565b600560009054906101000a900473ffffffffffffffffffffffffffffffffffffffff1673ffffffffffffffffffffffffffffffffffffffff163373ffffffffffffffffffffffffffffffffffffffff16146104cc576040517f08c379a00000000000000000000000000000000000000000000000000000000081526004016104c39061146f565b60405180910390fd5b8060068190555050565b6000806104e1610811565b90506104ee85828561082b565b6104f98585856108c0565b60019150509392505050565b63042c1d8081565b60006012905090565b60007f0000000000000000000000000000000000000000000000000000000000000000905090565b61054f610549610811565b826109b4565b50565b60008060008373ffffffffffffffffffffffffffffffffffffffff1673ffffffffffffffffffffffffffffffffffffffff168152602001908152602001600020549050919050565b6105ac826105a6610811565b8361082b565b6105b682826109b4565b5050565b600560009054906101000a900473ffffffffffffffffffffffffffffffffffffffff1673ffffffffffffffffffffffffffffffffffffffff163373ffffffffffffffffffffffffffffffffffffffff161461064a576040517f08c379a00000000000000000000000000000000000000000000000000000000081526004016106419061146f565b60405180910390fd5b600560009054906101000a900473ffffffffffffffffffffffffffffffffffffffff1673ffffffffffffffffffffffffffffffffffffffff16ff5b6000600560009054906101000a900473ffffffffffffffffffffffffffffffffffffffff16905090565b600560009054906101000a900473ffffffffffffffffffffffffffffffffffffffff1681565b6060600480546106e4906113cc565b80601f0160208091040260200160405190810160405280929190818152602001828054610710906113cc565b801561075d5780601f106107325761010080835404028352916020019161075d565b820191906000526020600020905b81548152906001019060200180831161074057829003601f168201915b5050505050905090565b600080610772610811565b905061077f8185856108c0565b600191505092915050565b6000600160008473ffffffffffffffffffffffffffffffffffffffff1673ffffffffffffffffffffffffffffffffffffffff16815260200190815260200160002060008373ffffffffffffffffffffffffffffffffffffffff1673ffffffffffffffffffffffffffffffffffffffff16815260200190815260200160002054905092915050565b600033905090565b6108268383836001610a36565b505050565b6000610837848461078a565b90507fffffffffffffffffffffffffffffffffffffffffffffffffffffffffffffffff8110156108ba57818110156108aa578281836040517ffb8f41b20000000000000000000000000000000000000000000000000000000081526004016108a19392919061148f565b60405180910390fd5b6108b984848484036000610a36565b5b50505050565b600073ffffffffffffffffffffffffffffffffffffffff168373ffffffffffffffffffffffffffffffffffffffff16036109325760006040517f96c6fd1e0000000000000000000000000000000000000000000000000000000081526004016109299190611306565b60405180910390fd5b600073ffffffffffffffffffffffffffffffffffffffff168273ffffffffffffffffffffffffffffffffffffffff16036109a45760006040517fec442f0500000000000000000000000000000000000000000000000000000000815260040161099b9190611306565b60405180910390fd5b6109af838383610c0d565b505050565b600073ffffffffffffffffffffffffffffffffffffffff168273ffffffffffffffffffffffffffffffffffffffff1603610a265760006040517f96c6fd1e000000000000000000000000000000000000000000000000000000008152600401610a1d9190611306565b60405180910390fd5b610a3282600083610c0d565b5050565b600073ffffffffffffffffffffffffffffffffffffffff168473ffffffffffffffffffffffffffffffffffffffff1603610aa85760006040517fe602df05000000000000000000000000000000000000000000000000000000008152600401610a9f9190611306565b60405180910390fd5b600073ffffffffffffffffffffffffffffffffffffffff168373ffffffffffffffffffffffffffffffffffffffff1603610b1a5760006040517f94280d62000000000000000000000000000000000000000000000000000000008152600401610b119190611306565b60405180910390fd5b81600160008673ffffffffffffffffffffffffffffffffffffffff1673ffffffffffffffffffffffffffffffffffffffff16815260200190815260200160002060008573ffffffffffffffffffffffffffffffffffffffff1673ffffffffffffffffffffffffffffffffffffffff168152602001908152602001600020819055508015610c07578273ffffffffffffffffffffffffffffffffffffffff168473ffffffffffffffffffffffffffffffffffffffff167f8c5be1e5ebec7d5bd14f71427d1e84f3dd0314c0f7b2291e5b200ac8c7c3b92584604051610bfe91906111f8565b60405180910390a35b50505050565b600073ffffffffffffffffffffffffffffffffffffffff168373ffffffffffffffffffffffffffffffffffffffff1614158015610c7657504173ffffffffffffffffffffffffffffffffffffffff168273ffffffffffffffffffffffffffffffffffffffff1614155b8015610caf5750600073ffffffffffffffffffffffffffffffffffffffff164173ffffffffffffffffffffffffffffffffffffffff1614155b15610cbd57610cbc610ccd565b5b610cc8838383610cdb565b505050565b610cd941600654610d81565b565b610ce6838383610e03565b600073ffffffffffffffffffffffffffffffffffffffff168373ffffffffffffffffffffffffffffffffffffffff1603610d7c576000610d24610516565b90506000610d30610432565b905081811115610d795780826040517f9e79f854000000000000000000000000000000000000000000000000000000008152600401610d709291906114c6565b60405180910390fd5b50505b505050565b600073ffffffffffffffffffffffffffffffffffffffff168273ffffffffffffffffffffffffffffffffffffffff1603610df35760006040517fec442f05000000000000000000000000000000000000000000000000000000008152600401610dea9190611306565b60405180910390fd5b610dff60008383610c0d565b5050565b600073ffffffffffffffffffffffffffffffffffffffff168373ffffffffffffffffffffffffffffffffffffffff1603610e55578060026000828254610e49919061151e565b92505081905550610f28565b60008060008573ffffffffffffffffffffffffffffffffffffffff1673ffffffffffffffffffffffffffffffffffffffff16815260200190815260200160002054905081811015610ee1578381836040517fe450d38c000000000000000000000000000000000000000000000000000000008152600401610ed89392919061148f565b60405180910390fd5b8181036000808673ffffffffffffffffffffffffffffffffffffffff1673ffffffffffffffffffffffffffffffffffffffff16815260200190815260200160002081905550505b600073ffffffffffffffffffffffffffffffffffffffff168273ffffffffffffffffffffffffffffffffffffffff1603610f715780600260008282540392505081905550610fbe565b806000808473ffffffffffffffffffffffffffffffffffffffff1673ffffffffffffffffffffffffffffffffffffffff168152602001908152602001600020600082825401925050819055505b8173ffffffffffffffffffffffffffffffffffffffff168373ffffffffffffffffffffffffffffffffffffffff167fddf252ad1be2c89b69c2b068fc378daa952ba7f163c4a11628f55a4df523b3ef8360405161101b91906111f8565b60405180910390a3505050565b600081519050919050565b600082825260208201905092915050565b60005b83811015611062578082015181840152602081019050611047565b60008484015250505050565b6000601f19601f8301169050919050565b600061108a82611028565b6110948185611033565b93506110a4818560208601611044565b6110ad8161106e565b840191505092915050565b600060208201905081810360008301526110d2818461107f565b905092915050565b600080fd5b600073ffffffffffffffffffffffffffffffffffffffff82169050919050565b600061110a826110df565b9050919050565b61111a816110ff565b811461112557600080fd5b50565b60008135905061113781611111565b92915050565b6000819050919050565b6111508161113d565b811461115b57600080fd5b50565b60008135905061116d81611147565b92915050565b6000806040838503121561118a576111896110da565b5b600061119885828601611128565b92505060206111a98582860161115e565b9150509250929050565b60008115159050919050565b6111c8816111b3565b82525050565b60006020820190506111e360008301846111bf565b92915050565b6111f28161113d565b82525050565b600060208201905061120d60008301846111e9565b92915050565b600060208284031215611229576112286110da565b5b60006112378482850161115e565b91505092915050565b600080600060608486031215611259576112586110da565b5b600061126786828701611128565b935050602061127886828701611128565b92505060406112898682870161115e565b9150509250925092565b600060ff82169050919050565b6112a981611293565b82525050565b60006020820190506112c460008301846112a0565b92915050565b6000602082840312156112e0576112df6110da565b5b60006112ee84828501611128565b91505092915050565b611300816110ff565b82525050565b600060208201905061131b60008301846112f7565b92915050565b600061132c826110df565b9050919050565b61133c81611321565b82525050565b60006020820190506113576000830184611333565b92915050565b60008060408385031215611374576113736110da565b5b600061138285828601611128565b925050602061139385828601611128565b9150509250929050565b7f4e487b7100000000000000000000000000000000000000000000000000000000600052602260045260246000fd5b600060028204905060018216806113e457607f821691505b6020821081036113f7576113f661139d565b5b50919050565b7f4f6e6c79206f776e65722063616e2063616c6c20746869732066756e6374696f60008201527f6e00000000000000000000000000000000000000000000000000000000000000602082015250565b6000611459602183611033565b9150611464826113fd565b604082019050919050565b600060208201905081810360008301526114888161144c565b9050919050565b60006060820190506114a460008301866112f7565b6114b160208301856111e9565b6114be60408301846111e9565b949350505050565b60006040820190506114db60008301856111e9565b6114e860208301846111e9565b9392505050565b7f4e487b7100000000000000000000000000000000000000000000000000000000600052601160045260246000fd5b60006115298261113d565b91506115348361113d565b925082820190508082111561154c5761154b6114ef565b5b9291505056fea2646970667358221220102affdd5a76e9b0c6c5687c8046b09e27bb5e32b4c6a8d2a2c20e4d84b0df1b64736f6c634300081c0033",
  "linkReferences": {},
  "deployedLinkReferences": {}
}