{
  "_format": "hh-sol-artifact-1",
  "contractName": "Vault",
  "sourceName": "contracts/Vault.sol",
  "abi": [
    {
      "inputs": [],
      "stateMutability": "nonpayable",
      "type": "constructor"
    },
    {
      "inputs": [],
      "name": "AccessControlBadConfirmation",
      "type": "error"
    },
    {
      "inputs": [
        {
          "internalType": "address",
          "name": "account",
          "type": "address"
        },
        {
          "internalType": "bytes32",
          "name": "neededRole",
          "type": "bytes32"
        }
      ],
      "name": "AccessControlUnauthorizedAccount",
      "type": "error"
    },
    {
      "inputs": [
        {
          "internalType": "address",
          "name": "owner",
          "type": "address"
        }
      ],
      "name": "OwnableInvalidOwner",
      "type": "error"
    },
    {
      "inputs": [
        {
          "internalType": "address",
          "name": "account",
          "type": "address"
        }
      ],
      "name": "OwnableUnauthorizedAccount",
      "type": "error"
    },
    {
      "inputs": [],
      "name": "ReentrancyGuardReentrantCall",
      "type": "error"
    },
    {
      "inputs": [
        {
          "internalType": "address",
          "name": "token",
          "type": "address"
        }
      ],
      "name": "SafeERC20FailedOperation",
      "type": "error"
    },
    {
      "anonymous": false,
      "inputs": [
        {
          "indexed": true,
          "internalType": "address",
          "name": "user",
          "type": "address"
        },
        {
          "indexed": false,
          "internalType": "uint256",
          "name": "amount",
          "type": "uint256"
        }
      ],
      "name": "Deposit",
      "type": "event"
    },
    {
      "anonymous": false,
      "inputs": [
        {
          "indexed": false,
          "internalType": "uint256",
          "name": "maxWithdrawAmount",
          "type": "uint256"
        }
      ],
      "name": "MaxWithdrawAmountSet",
      "type": "event"
    },
    {
      "anonymous": false,
      "inputs": [
        {
          "indexed": true,
          "internalType": "address",
          "name": "previousOwner",
          "type": "address"
        },
        {
          "indexed": true,
          "internalType": "address",
          "name": "newOwner",
          "type": "address"
        }
      ],
      "name": "OwnershipTransferred",
      "type": "event"
    },
    {
      "anonymous": false,
      "inputs": [
        {
          "indexed": true,
          "internalType": "bytes32",
          "name": "role",
          "type": "bytes32"
        },
        {
          "indexed": true,
          "internalType": "bytes32",
          "name": "previousAdminRole",
          "type": "bytes32"
        },
        {
          "indexed": true,
          "internalType": "bytes32",
          "name": "newAdminRole",
          "type": "bytes32"
        }
      ],
      "name": "RoleAdminChanged",
      "type": "event"
    },
    {
      "anonymous": false,
      "inputs": [
        {
          "indexed": true,
          "internalType": "bytes32",
          "name": "role",
          "type": "bytes32"
        },
        {
          "indexed": true,
          "internalType": "address",
          "name": "account",
          "type": "address"
        },
        {
          "indexed": true,
          "internalType": "address",
          "name": "sender",
          "type": "address"
        }
      ],
      "name": "RoleGranted",
      "type": "event"
    },
    {
      "anonymous": false,
      "inputs": [
        {
          "indexed": true,
          "internalType": "bytes32",
          "name": "role",
          "type": "bytes32"
        },
        {
          "indexed": true,
          "internalType": "address",
          "name": "account",
          "type": "address"
        },
        {
          "indexed": true,
          "internalType": "address",
          "name": "sender",
          "type": "address"
        }
      ],
      "name": "RoleRevoked",
      "type": "event"
    },
    {
      "anonymous": false,
      "inputs": [
        {
          "indexed": true,
          "internalType": "address",
          "name": "token",
          "type": "address"
        }
      ],
      "name": "TokenSet",
      "type": "event"
    },
    {
      "anonymous": false,
      "inputs": [
        {
          "indexed": false,
          "internalType": "bool",
          "name": "withdrawEnabled",
          "type": "bool"
        }
      ],
      "name": "WithdrawEnabledSet",
      "type": "event"
    },
    {
      "anonymous": false,
      "inputs": [
        {
          "indexed": true,
          "internalType": "address",
          "name": "user",
          "type": "address"
        },
        {
          "indexed": false,
          "internalType": "uint256",
          "name": "amount",
          "type": "uint256"
        }
      ],
      "name": "Withdrawal",
      "type": "event"
    },
    {
      "inputs": [],
      "name": "DEFAULT_ADMIN_ROLE",
      "outputs": [
        {
          "internalType": "bytes32",
          "name": "",
          "type": "bytes32"
        }
      ],
      "stateMutability": "view",
      "type": "function"
    },
    {
      "inputs": [
        {
          "internalType": "uint256",
          "name": "_amount",
          "type": "uint256"
        }
      ],
      "name": "deposit",
      "outputs": [],
      "stateMutability": "nonpayable",
      "type": "function"
    },
    {
      "inputs": [
        {
          "internalType": "address",
          "name": "_user",
          "type": "address"
        },
        {
          "internalType": "uint256",
          "name": "_amount",
          "type": "uint256"
        }
      ],
      "name": "emergencyWithdraw",
      "outputs": [],
      "stateMutability": "nonpayable",
      "type": "function"
    },
    {
      "inputs": [
        {
          "internalType": "bytes32",
          "name": "role",
          "type": "bytes32"
        }
      ],
      "name": "getRoleAdmin",
      "outputs": [
        {
          "internalType": "bytes32",
          "name": "",
          "type": "bytes32"
        }
      ],
      "stateMutability": "view",
      "type": "function"
    },
    {
      "inputs": [
        {
          "internalType": "bytes32",
          "name": "role",
          "type": "bytes32"
        },
        {
          "internalType": "uint256",
          "name": "index",
          "type": "uint256"
        }
      ],
      "name": "getRoleMember",
      "outputs": [
        {
          "internalType": "address",
          "name": "",
          "type": "address"
        }
      ],
      "stateMutability": "view",
      "type": "function"
    },
    {
      "inputs": [
        {
          "internalType": "bytes32",
          "name": "role",
          "type": "bytes32"
        }
      ],
      "name": "getRoleMemberCount",
      "outputs": [
        {
          "internalType": "uint256",
          "name": "",
          "type": "uint256"
        }
      ],
      "stateMutability": "view",
      "type": "function"
    },
    {
      "inputs": [
        {
          "internalType": "bytes32",
          "name": "role",
          "type": "bytes32"
        }
      ],
      "name": "getRoleMembers",
      "outputs": [
        {
          "internalType": "address[]",
          "name": "",
          "type": "address[]"
        }
      ],
      "stateMutability": "view",
      "type": "function"
    },
    {
      "inputs": [
        {
          "internalType": "bytes32",
          "name": "role",
          "type": "bytes32"
        },
        {
          "internalType": "address",
          "name": "account",
          "type": "address"
        }
      ],
      "name": "grantRole",
      "outputs": [],
      "stateMutability": "nonpayable",
      "type": "function"
    },
    {
      "inputs": [
        {
          "internalType": "bytes32",
          "name": "role",
          "type": "bytes32"
        },
        {
          "internalType": "address",
          "name": "account",
          "type": "address"
        }
      ],
      "name": "hasRole",
      "outputs": [
        {
          "internalType": "bool",
          "name": "",
          "type": "bool"
        }
      ],
      "stateMutability": "view",
      "type": "function"
    },
    {
      "inputs": [],
      "name": "owner",
      "outputs": [
        {
          "internalType": "address",
          "name": "",
          "type": "address"
        }
      ],
      "stateMutability": "view",
      "type": "function"
    },
    {
      "inputs": [],
      "name": "renounceOwnership",
      "outputs": [],
      "stateMutability": "nonpayable",
      "type": "function"
    },
    {
      "inputs": [
        {
          "internalType": "bytes32",
          "name": "role",
          "type": "bytes32"
        },
        {
          "internalType": "address",
          "name": "callerConfirmation",
          "type": "address"
        }
      ],
      "name": "renounceRole",
      "outputs": [],
      "stateMutability": "nonpayable",
      "type": "function"
    },
    {
      "inputs": [
        {
          "internalType": "bytes32",
          "name": "role",
          "type": "bytes32"
        },
        {
          "internalType": "address",
          "name": "account",
          "type": "address"
        }
      ],
      "name": "revokeRole",
      "outputs": [],
      "stateMutability": "nonpayable",
      "type": "function"
    },
    {
      "inputs": [
        {
          "internalType": "uint256",
          "name": "_maxWithdrawAmount",
          "type": "uint256"
        }
      ],
      "name": "setMaxWithdrawAmount",
      "outputs": [],
      "stateMutability": "nonpayable",
      "type": "function"
    },
    {
      "inputs": [
        {
          "internalType": "contract IERC20",
          "name": "_token",
          "type": "address"
        }
      ],
      "name": "setToken",
      "outputs": [],
      "stateMutability": "nonpayable",
      "type": "function"
    },
    {
      "inputs": [
        {
          "internalType": "bool",
          "name": "_withdrawEnabled",
          "type": "bool"
        }
      ],
      "name": "setWithdrawEnabled",
      "outputs": [],
      "stateMutability": "nonpayable",
      "type": "function"
    },
    {
      "inputs": [
        {
          "internalType": "bytes4",
          "name": "interfaceId",
          "type": "bytes4"
        }
      ],
      "name": "supportsInterface",
      "outputs": [
        {
          "internalType": "bool",
          "name": "",
          "type": "bool"
        }
      ],
      "stateMutability": "view",
      "type": "function"
    },
    {
      "inputs": [],
      "name": "totalDeposited",
      "outputs": [
        {
          "internalType": "uint256",
          "name": "",
          "type": "uint256"
        }
      ],
      "stateMutability": "view",
      "type": "function"
    },
    {
      "inputs": [
        {
          "internalType": "address",
          "name": "newOwner",
          "type": "address"
        }
      ],
      "name": "transferOwnership",
      "outputs": [],
      "stateMutability": "nonpayable",
      "type": "function"
    },
    {
      "inputs": [
        {
          "internalType": "address",
          "name": "",
          "type": "address"
        }
      ],
      "name": "userBalance",
      "outputs": [
        {
          "internalType": "uint256",
          "name": "",
          "type": "uint256"
        }
      ],
      "stateMutability": "view",
      "type": "function"
    },
    {
      "inputs": [
        {
          "internalType": "uint256",
          "name": "_amount",
          "type": "uint256"
        }
      ],
      "name": "withdraw",
      "outputs": [],
      "stateMutability": "nonpayable",
      "type": "function"
    }
  ],
  "bytecode": "0x608060405234801561001057600080fd5b5033600073ffffffffffffffffffffffffffffffffffffffff168173ffffffffffffffffffffffffffffffffffffffff16036100845760006040517f1e4fbdf700000000000000000000000000000000000000000000000000000000815260040161007b9190610452565b60405180910390fd5b610093816100c260201b60201c565b5060016003819055506100bc6000801b6100b161018660201b60201c565b61018e60201b60201c565b5061046d565b60008060009054906101000a900473ffffffffffffffffffffffffffffffffffffffff169050816000806101000a81548173ffffffffffffffffffffffffffffffffffffffff021916908373ffffffffffffffffffffffffffffffffffffffff1602179055508173ffffffffffffffffffffffffffffffffffffffff168173ffffffffffffffffffffffffffffffffffffffff167f8be0079c531659141344cd1fd0a4f28419497f9722a3daafe3b4186f6b6457e060405160405180910390a35050565b600033905090565b6000806101a184846101da60201b60201c565b905080156101d0576101ce83600260008781526020019081526020016000206102d760201b90919060201c565b505b8091505092915050565b60006101ec838361030d60201b60201c565b6102cc57600180600085815260200190815260200160002060000160008473ffffffffffffffffffffffffffffffffffffffff1673ffffffffffffffffffffffffffffffffffffffff16815260200190815260200160002060006101000a81548160ff02191690831515021790555061026961018660201b60201c565b73ffffffffffffffffffffffffffffffffffffffff168273ffffffffffffffffffffffffffffffffffffffff16847f2f8788117e7eff1d82e926ec794901d17c78024a50270940304540a733656f0d60405160405180910390a4600190506102d1565b600090505b92915050565b6000610305836000018373ffffffffffffffffffffffffffffffffffffffff1660001b61037860201b60201c565b905092915050565b60006001600084815260200190815260200160002060000160008373ffffffffffffffffffffffffffffffffffffffff1673ffffffffffffffffffffffffffffffffffffffff16815260200190815260200160002060009054906101000a900460ff16905092915050565b600061038a83836103ee60201b60201c565b6103e35782600001829080600181540180825580915050600190039060005260206000200160009091909190915055826000018054905083600101600084815260200190815260200160002081905550600190506103e8565b600090505b92915050565b600080836001016000848152602001908152602001600020541415905092915050565b600073ffffffffffffffffffffffffffffffffffffffff82169050919050565b600061043c82610411565b9050919050565b61044c81610431565b82525050565b60006020820190506104676000830184610443565b92915050565b6126ea8061047c6000396000f3fe608060405234801561001057600080fd5b50600436106101375760003560e01c806391d14854116100b8578063b6b55f251161007c578063b6b55f251461034a578063ca15c87314610366578063d547741f14610396578063df74e028146103b2578063f2fde38b146103ce578063ff50abdc146103ea57610137565b806391d148541461029457806395ccea67146102c45780639ec004a2146102e0578063a217fddf146102fc578063a3246ad31461031a57610137565b80632f2ff15d116100ff5780632f2ff15d1461020457806336568abe14610220578063715018a61461023c5780638da5cb5b146102465780639010d07c1461026457610137565b80630103c92b1461013c57806301ffc9a71461016c578063144fa6d71461019c578063248a9ca3146101b85780632e1a7d4d146101e8575b600080fd5b61015660048036038101906101519190611c58565b610408565b6040516101639190611c9e565b60405180910390f35b61018660048036038101906101819190611d11565b610420565b6040516101939190611d59565b60405180910390f35b6101b660048036038101906101b19190611db2565b61049a565b005b6101d260048036038101906101cd9190611e15565b610598565b6040516101df9190611e51565b60405180910390f35b61020260048036038101906101fd9190611e98565b6105b8565b005b61021e60048036038101906102199190611ec5565b61090c565b005b61023a60048036038101906102359190611ec5565b61092e565b005b6102446109a9565b005b61024e6109bd565b60405161025b9190611f14565b60405180910390f35b61027e60048036038101906102799190611f2f565b6109e6565b60405161028b9190611f14565b60405180910390f35b6102ae60048036038101906102a99190611ec5565b610a15565b6040516102bb9190611d59565b60405180910390f35b6102de60048036038101906102d99190611f6f565b610a80565b005b6102fa60048036038101906102f59190611fdb565b610d4f565b005b610304610dab565b6040516103119190611e51565b60405180910390f35b610334600480360381019061032f9190611e15565b610db2565b60405161034191906120c6565b60405180910390f35b610364600480360381019061035f9190611e98565b610dd6565b005b610380600480360381019061037b9190611e15565b6110a9565b60405161038d9190611c9e565b60405180910390f35b6103b060048036038101906103ab9190611ec5565b6110cd565b005b6103cc60048036038101906103c79190611e98565b6110ef565b005b6103e860048036038101906103e39190611c58565b61117b565b005b6103f2611201565b6040516103ff9190611c9e565b60405180910390f35b60076020528060005260406000206000915090505481565b60007f5a05180f000000000000000000000000000000000000000000000000000000007bffffffffffffffffffffffffffffffffffffffffffffffffffffffff1916827bffffffffffffffffffffffffffffffffffffffffffffffffffffffff19161480610493575061049282611207565b5b9050919050565b6104a2611281565b600073ffffffffffffffffffffffffffffffffffffffff168173ffffffffffffffffffffffffffffffffffffffff1603610511576040517f08c379a000000000000000000000000000000000000000000000000000000000815260040161050890612145565b60405180910390fd5b80600460006101000a81548173ffffffffffffffffffffffffffffffffffffffff021916908373ffffffffffffffffffffffffffffffffffffffff1602179055508073ffffffffffffffffffffffffffffffffffffffff167fa07c91c183e42229e705a9795a1c06d76528b673788b849597364528c96eefb760405160405180910390a250565b600060016000838152602001908152602001600020600101549050919050565b6105c0611308565b600554811115610605576040517f08c379a00000000000000000000000000000000000000000000000000000000081526004016105fc906121d7565b60405180910390fd5b600660009054906101000a900460ff16610654576040517f08c379a000000000000000000000000000000000000000000000000000000000815260040161064b90612243565b60405180910390fd5b60008111610697576040517f08c379a000000000000000000000000000000000000000000000000000000000815260040161068e906122af565b60405180910390fd5b80600460009054906101000a900473ffffffffffffffffffffffffffffffffffffffff1673ffffffffffffffffffffffffffffffffffffffff166370a08231306040518263ffffffff1660e01b81526004016106f39190611f14565b602060405180830381865afa158015610710573d6000803e3d6000fd5b505050506040513d601f19601f8201168201806040525081019061073491906122e4565b1015610775576040517f08c379a000000000000000000000000000000000000000000000000000000000815260040161076c9061235d565b60405180910390fd5b80600760003373ffffffffffffffffffffffffffffffffffffffff1673ffffffffffffffffffffffffffffffffffffffff1681526020019081526020016000205410156107f7576040517f08c379a00000000000000000000000000000000000000000000000000000000081526004016107ee9061235d565b60405180910390fd5b80600760003373ffffffffffffffffffffffffffffffffffffffff1673ffffffffffffffffffffffffffffffffffffffff168152602001908152602001600020600082825461084691906123ac565b92505081905550806008600082825461085f91906123ac565b925050819055506108b33382600460009054906101000a900473ffffffffffffffffffffffffffffffffffffffff1673ffffffffffffffffffffffffffffffffffffffff1661134e9092919063ffffffff16565b3373ffffffffffffffffffffffffffffffffffffffff167f7fcf532c15f0a6db0bd6d0e038bea71d30d808c7d98cb3bf7268a95bf5081b65826040516108f99190611c9e565b60405180910390a26109096113cd565b50565b61091582610598565b61091e816113d7565b61092883836113eb565b50505050565b610936611431565b73ffffffffffffffffffffffffffffffffffffffff168173ffffffffffffffffffffffffffffffffffffffff161461099a576040517f6697b23200000000000000000000000000000000000000000000000000000000815260040160405180910390fd5b6109a48282611439565b505050565b6109b1611281565b6109bb600061147f565b565b60008060009054906101000a900473ffffffffffffffffffffffffffffffffffffffff16905090565b6000610a0d826002600086815260200190815260200160002061154390919063ffffffff16565b905092915050565b60006001600084815260200190815260200160002060000160008373ffffffffffffffffffffffffffffffffffffffff1673ffffffffffffffffffffffffffffffffffffffff16815260200190815260200160002060009054906101000a900460ff16905092915050565b6000801b610a8d816113d7565b610a95611308565b60008211610ad8576040517f08c379a0000000000000000000000000000000000000000000000000000000008152600401610acf906122af565b60405180910390fd5b81600460009054906101000a900473ffffffffffffffffffffffffffffffffffffffff1673ffffffffffffffffffffffffffffffffffffffff166370a08231306040518263ffffffff1660e01b8152600401610b349190611f14565b602060405180830381865afa158015610b51573d6000803e3d6000fd5b505050506040513d601f19601f82011682018060405250810190610b7591906122e4565b1015610bb6576040517f08c379a0000000000000000000000000000000000000000000000000000000008152600401610bad9061235d565b60405180910390fd5b81600760008573ffffffffffffffffffffffffffffffffffffffff1673ffffffffffffffffffffffffffffffffffffffff168152602001908152602001600020541015610c38576040517f08c379a0000000000000000000000000000000000000000000000000000000008152600401610c2f9061235d565b60405180910390fd5b81600760008573ffffffffffffffffffffffffffffffffffffffff1673ffffffffffffffffffffffffffffffffffffffff1681526020019081526020016000206000828254610c8791906123ac565b925050819055508160086000828254610ca091906123ac565b92505081905550610cf48383600460009054906101000a900473ffffffffffffffffffffffffffffffffffffffff1673ffffffffffffffffffffffffffffffffffffffff1661134e9092919063ffffffff16565b8273ffffffffffffffffffffffffffffffffffffffff167f7fcf532c15f0a6db0bd6d0e038bea71d30d808c7d98cb3bf7268a95bf5081b6583604051610d3a9190611c9e565b60405180910390a2610d4a6113cd565b505050565b610d57611281565b80600660006101000a81548160ff0219169083151502179055507f8bd880e78ecd94524b5d19af45fd743bd802ef13099a95a78a4a0033c1287c3e81604051610da09190611d59565b60405180910390a150565b6000801b81565b6060610dcf6002600084815260200190815260200160002061155d565b9050919050565b610dde611308565b60008111610e21576040517f08c379a0000000000000000000000000000000000000000000000000000000008152600401610e18906122af565b60405180910390fd5b600073ffffffffffffffffffffffffffffffffffffffff16600460009054906101000a900473ffffffffffffffffffffffffffffffffffffffff1673ffffffffffffffffffffffffffffffffffffffff1603610eb2576040517f08c379a0000000000000000000000000000000000000000000000000000000008152600401610ea99061242c565b60405180910390fd5b80600460009054906101000a900473ffffffffffffffffffffffffffffffffffffffff1673ffffffffffffffffffffffffffffffffffffffff1663dd62ed3e33306040518363ffffffff1660e01b8152600401610f1092919061244c565b602060405180830381865afa158015610f2d573d6000803e3d6000fd5b505050506040513d601f19601f82011682018060405250810190610f5191906122e4565b1015610f92576040517f08c379a0000000000000000000000000000000000000000000000000000000008152600401610f89906124e7565b60405180910390fd5b80600760003373ffffffffffffffffffffffffffffffffffffffff1673ffffffffffffffffffffffffffffffffffffffff1681526020019081526020016000206000828254610fe19190612507565b925050819055508060086000828254610ffa9190612507565b92505081905550611050333083600460009054906101000a900473ffffffffffffffffffffffffffffffffffffffff1673ffffffffffffffffffffffffffffffffffffffff1661157e909392919063ffffffff16565b3373ffffffffffffffffffffffffffffffffffffffff167fe1fffcc4923d04b559f4d29a8bfc6cda04eb5b0d3c460751c2402c5c5cc9109c826040516110969190611c9e565b60405180910390a26110a66113cd565b50565b60006110c660026000848152602001908152602001600020611600565b9050919050565b6110d682610598565b6110df816113d7565b6110e98383611439565b50505050565b6110f7611281565b6000811161113a576040517f08c379a0000000000000000000000000000000000000000000000000000000008152600401611131906125ad565b60405180910390fd5b806005819055507f25c6dc516485950b29e915125f5dc18ddff8713c81aaa38ce38bea74bedfa425816040516111709190611c9e565b60405180910390a150565b611183611281565b600073ffffffffffffffffffffffffffffffffffffffff168173ffffffffffffffffffffffffffffffffffffffff16036111f55760006040517f1e4fbdf70000000000000000000000000000000000000000000000000000000081526004016111ec9190611f14565b60405180910390fd5b6111fe8161147f565b50565b60085481565b60007f7965db0b000000000000000000000000000000000000000000000000000000007bffffffffffffffffffffffffffffffffffffffffffffffffffffffff1916827bffffffffffffffffffffffffffffffffffffffffffffffffffffffff1916148061127a575061127982611615565b5b9050919050565b611289611431565b73ffffffffffffffffffffffffffffffffffffffff166112a76109bd565b73ffffffffffffffffffffffffffffffffffffffff1614611306576112ca611431565b6040517f118cdaa70000000000000000000000000000000000000000000000000000000081526004016112fd9190611f14565b60405180910390fd5b565b600260035403611344576040517f3ee5aeb500000000000000000000000000000000000000000000000000000000815260040160405180910390fd5b6002600381905550565b6113c8838473ffffffffffffffffffffffffffffffffffffffff1663a9059cbb85856040516024016113819291906125cd565b604051602081830303815290604052915060e01b6020820180517bffffffffffffffffffffffffffffffffffffffffffffffffffffffff838183161783525050505061167f565b505050565b6001600381905550565b6113e8816113e3611431565b611721565b50565b6000806113f88484611772565b9050801561142757611425836002600087815260200190815260200160002061186390919063ffffffff16565b505b8091505092915050565b600033905090565b6000806114468484611893565b9050801561147557611473836002600087815260200190815260200160002061198690919063ffffffff16565b505b8091505092915050565b60008060009054906101000a900473ffffffffffffffffffffffffffffffffffffffff169050816000806101000a81548173ffffffffffffffffffffffffffffffffffffffff021916908373ffffffffffffffffffffffffffffffffffffffff1602179055508173ffffffffffffffffffffffffffffffffffffffff168173ffffffffffffffffffffffffffffffffffffffff167f8be0079c531659141344cd1fd0a4f28419497f9722a3daafe3b4186f6b6457e060405160405180910390a35050565b600061155283600001836119b6565b60001c905092915050565b6060600061156d836000016119e1565b905060608190508092505050919050565b6115fa848573ffffffffffffffffffffffffffffffffffffffff166323b872dd8686866040516024016115b3939291906125f6565b604051602081830303815290604052915060e01b6020820180517bffffffffffffffffffffffffffffffffffffffffffffffffffffffff838183161783525050505061167f565b50505050565b600061160e82600001611a3d565b9050919050565b60007f01ffc9a7000000000000000000000000000000000000000000000000000000007bffffffffffffffffffffffffffffffffffffffffffffffffffffffff1916827bffffffffffffffffffffffffffffffffffffffffffffffffffffffff1916149050919050565b600080602060008451602086016000885af1806116a2576040513d6000823e3d81fd5b3d9250600051915050600082146116bd5760018114156116d9565b60008473ffffffffffffffffffffffffffffffffffffffff163b145b1561171b57836040517f5274afe70000000000000000000000000000000000000000000000000000000081526004016117129190611f14565b60405180910390fd5b50505050565b61172b8282610a15565b61176e5780826040517fe2517d3f00000000000000000000000000000000000000000000000000000000815260040161176592919061262d565b60405180910390fd5b5050565b600061177e8383610a15565b61185857600180600085815260200190815260200160002060000160008473ffffffffffffffffffffffffffffffffffffffff1673ffffffffffffffffffffffffffffffffffffffff16815260200190815260200160002060006101000a81548160ff0219169083151502179055506117f5611431565b73ffffffffffffffffffffffffffffffffffffffff168273ffffffffffffffffffffffffffffffffffffffff16847f2f8788117e7eff1d82e926ec794901d17c78024a50270940304540a733656f0d60405160405180910390a46001905061185d565b600090505b92915050565b600061188b836000018373ffffffffffffffffffffffffffffffffffffffff1660001b611a4e565b905092915050565b600061189f8383610a15565b1561197b5760006001600085815260200190815260200160002060000160008473ffffffffffffffffffffffffffffffffffffffff1673ffffffffffffffffffffffffffffffffffffffff16815260200190815260200160002060006101000a81548160ff021916908315150217905550611918611431565b73ffffffffffffffffffffffffffffffffffffffff168273ffffffffffffffffffffffffffffffffffffffff16847ff6391f5c32d9c69d2a47ea670b442974b53935d1edc7fd64eb21e047a839171b60405160405180910390a460019050611980565b600090505b92915050565b60006119ae836000018373ffffffffffffffffffffffffffffffffffffffff1660001b611abe565b905092915050565b60008260000182815481106119ce576119cd612656565b5b9060005260206000200154905092915050565b606081600001805480602002602001604051908101604052809291908181526020018280548015611a3157602002820191906000526020600020905b815481526020019060010190808311611a1d575b50505050509050919050565b600081600001805490509050919050565b6000611a5a8383611bd2565b611ab3578260000182908060018154018082558091505060019003906000526020600020016000909190919091505582600001805490508360010160008481526020019081526020016000208190555060019050611ab8565b600090505b92915050565b60008083600101600084815260200190815260200160002054905060008114611bc6576000600182611af091906123ac565b9050600060018660000180549050611b0891906123ac565b9050808214611b77576000866000018281548110611b2957611b28612656565b5b9060005260206000200154905080876000018481548110611b4d57611b4c612656565b5b90600052602060002001819055508387600101600083815260200190815260200160002081905550505b85600001805480611b8b57611b8a612685565b5b600190038181906000526020600020016000905590558560010160008681526020019081526020016000206000905560019350505050611bcc565b60009150505b92915050565b600080836001016000848152602001908152602001600020541415905092915050565b600080fd5b600073ffffffffffffffffffffffffffffffffffffffff82169050919050565b6000611c2582611bfa565b9050919050565b611c3581611c1a565b8114611c4057600080fd5b50565b600081359050611c5281611c2c565b92915050565b600060208284031215611c6e57611c6d611bf5565b5b6000611c7c84828501611c43565b91505092915050565b6000819050919050565b611c9881611c85565b82525050565b6000602082019050611cb36000830184611c8f565b92915050565b60007fffffffff0000000000000000000000000000000000000000000000000000000082169050919050565b611cee81611cb9565b8114611cf957600080fd5b50565b600081359050611d0b81611ce5565b92915050565b600060208284031215611d2757611d26611bf5565b5b6000611d3584828501611cfc565b91505092915050565b60008115159050919050565b611d5381611d3e565b82525050565b6000602082019050611d6e6000830184611d4a565b92915050565b6000611d7f82611c1a565b9050919050565b611d8f81611d74565b8114611d9a57600080fd5b50565b600081359050611dac81611d86565b92915050565b600060208284031215611dc857611dc7611bf5565b5b6000611dd684828501611d9d565b91505092915050565b6000819050919050565b611df281611ddf565b8114611dfd57600080fd5b50565b600081359050611e0f81611de9565b92915050565b600060208284031215611e2b57611e2a611bf5565b5b6000611e3984828501611e00565b91505092915050565b611e4b81611ddf565b82525050565b6000602082019050611e666000830184611e42565b92915050565b611e7581611c85565b8114611e8057600080fd5b50565b600081359050611e9281611e6c565b92915050565b600060208284031215611eae57611ead611bf5565b5b6000611ebc84828501611e83565b91505092915050565b60008060408385031215611edc57611edb611bf5565b5b6000611eea85828601611e00565b9250506020611efb85828601611c43565b9150509250929050565b611f0e81611c1a565b82525050565b6000602082019050611f296000830184611f05565b92915050565b60008060408385031215611f4657611f45611bf5565b5b6000611f5485828601611e00565b9250506020611f6585828601611e83565b9150509250929050565b60008060408385031215611f8657611f85611bf5565b5b6000611f9485828601611c43565b9250506020611fa585828601611e83565b9150509250929050565b611fb881611d3e565b8114611fc357600080fd5b50565b600081359050611fd581611faf565b92915050565b600060208284031215611ff157611ff0611bf5565b5b6000611fff84828501611fc6565b91505092915050565b600081519050919050565b600082825260208201905092915050565b6000819050602082019050919050565b61203d81611c1a565b82525050565b600061204f8383612034565b60208301905092915050565b6000602082019050919050565b600061207382612008565b61207d8185612013565b935061208883612024565b8060005b838110156120b95781516120a08882612043565b97506120ab8361205b565b92505060018101905061208c565b5085935050505092915050565b600060208201905081810360008301526120e08184612068565b905092915050565b600082825260208201905092915050565b7f496e76616c696420746f6b656e20616464726573730000000000000000000000600082015250565b600061212f6015836120e8565b915061213a826120f9565b602082019050919050565b6000602082019050818103600083015261215e81612122565b9050919050565b7f416d6f756e742065786365656473206d617820776974686472617720616d6f7560008201527f6e74000000000000000000000000000000000000000000000000000000000000602082015250565b60006121c16022836120e8565b91506121cc82612165565b604082019050919050565b600060208201905081810360008301526121f0816121b4565b9050919050565b7f5769746864726177206973206e6f7420656e61626c6564000000000000000000600082015250565b600061222d6017836120e8565b9150612238826121f7565b602082019050919050565b6000602082019050818103600083015261225c81612220565b9050919050565b7f416d6f756e74206d7573742062652067726561746572207468616e2030000000600082015250565b6000612299601d836120e8565b91506122a482612263565b602082019050919050565b600060208201905081810360008301526122c88161228c565b9050919050565b6000815190506122de81611e6c565b92915050565b6000602082840312156122fa576122f9611bf5565b5b6000612308848285016122cf565b91505092915050565b7f496e73756666696369656e742062616c616e6365000000000000000000000000600082015250565b60006123476014836120e8565b915061235282612311565b602082019050919050565b600060208201905081810360008301526123768161233a565b9050919050565b7f4e487b7100000000000000000000000000000000000000000000000000000000600052601160045260246000fd5b60006123b782611c85565b91506123c283611c85565b92508282039050818111156123da576123d961237d565b5b92915050565b7f546f6b656e206d75737420626520736574000000000000000000000000000000600082015250565b60006124166011836120e8565b9150612421826123e0565b602082019050919050565b6000602082019050818103600083015261244581612409565b9050919050565b60006040820190506124616000830185611f05565b61246e6020830184611f05565b9392505050565b7f496e73756666696369656e7420616c6c6f77616e6365202d20706c656173652060008201527f617070726f766520746f6b656e73206669727374000000000000000000000000602082015250565b60006124d16034836120e8565b91506124dc82612475565b604082019050919050565b60006020820190508181036000830152612500816124c4565b9050919050565b600061251282611c85565b915061251d83611c85565b92508282019050808211156125355761253461237d565b5b92915050565b7f4d61782077697468647261772077696c6c20626520677265617468657220746860008201527f616e203000000000000000000000000000000000000000000000000000000000602082015250565b60006125976024836120e8565b91506125a28261253b565b604082019050919050565b600060208201905081810360008301526125c68161258a565b9050919050565b60006040820190506125e26000830185611f05565b6125ef6020830184611c8f565b9392505050565b600060608201905061260b6000830186611f05565b6126186020830185611f05565b6126256040830184611c8f565b949350505050565b60006040820190506126426000830185611f05565b61264f6020830184611e42565b9392505050565b7f4e487b7100000000000000000000000000000000000000000000000000000000600052603260045260246000fd5b7f4e487b7100000000000000000000000000000000000000000000000000000000600052603160045260246000fdfea2646970667358221220dee223656071ff43ed8ba20a3d53c755a3958ea5829c8cc5b87cfe757cbb901764736f6c634300081c0033",
  "linkReferences": {},
  "deployedLinkReferences": {}
}